{
  "contractName": "Proxy",
  "abi": [
    {
      "inputs": [],
      "stateMutability": "nonpayable",
      "type": "constructor"
    },
    {
      "anonymous": false,
      "inputs": [
        {
          "indexed": false,
          "internalType": "address",
          "name": "_from",
          "type": "address"
        },
        {
          "indexed": false,
          "internalType": "address",
          "name": "_registry",
          "type": "address"
        }
      ],
      "name": "Creation",
      "type": "event"
    },
    {
      "inputs": [],
      "name": "createRegistry",
      "outputs": [
        {
          "internalType": "address",
          "name": "",
          "type": "address"
        }
      ],
      "stateMutability": "nonpayable",
      "type": "function"
    },
    {
      "inputs": [],
      "name": "getRegistryAddress",
      "outputs": [
        {
          "internalType": "bytes",
          "name": "",
          "type": "bytes"
        }
      ],
      "stateMutability": "view",
      "type": "function",
      "constant": true
    },
    {
      "inputs": [],
      "name": "deleteRegistry",
      "outputs": [],
      "stateMutability": "nonpayable",
      "type": "function"
    },
    {
      "inputs": [
        {
          "internalType": "address",
          "name": "a",
          "type": "address"
        }
      ],
      "name": "toBytes",
      "outputs": [
        {
          "internalType": "bytes",
          "name": "",
          "type": "bytes"
        }
      ],
      "stateMutability": "pure",
      "type": "function",
      "constant": true
    }
  ],
  "bytecode": "0x608060405234801561001057600080fd5b50612a89806100206000396000f3fe608060405234801561001057600080fd5b506004361061004c5760003560e01c8063593b79fe14610051578063c72be0bb14610081578063ea305fc21461009f578063f21de1e8146100a9575b600080fd5b61006b600480360381019061006691906106bc565b6100c7565b6040516100789190610782565b60405180910390f35b6100896100f0565b60405161009691906107b3565b60405180910390f35b6100a7610323565b005b6100b1610453565b6040516100be9190610782565b60405180910390f35b6060816040516020016100da9190610816565b6040516020818303038152906040529050919050565b60008073ffffffffffffffffffffffffffffffffffffffff166000803373ffffffffffffffffffffffffffffffffffffffff1673ffffffffffffffffffffffffffffffffffffffff16815260200190815260200160002060009054906101000a900473ffffffffffffffffffffffffffffffffffffffff1673ffffffffffffffffffffffffffffffffffffffff16146101be576040517f08c379a00000000000000000000000000000000000000000000000000000000081526004016101b59061088e565b60405180910390fd5b6000336040516101cd9061064c565b6101d791906107b3565b604051809103906000f0801580156101f3573d6000803e3d6000fd5b5090506101ff8161058e565b806000803373ffffffffffffffffffffffffffffffffffffffff1673ffffffffffffffffffffffffffffffffffffffff16815260200190815260200160002060006101000a81548173ffffffffffffffffffffffffffffffffffffffff021916908373ffffffffffffffffffffffffffffffffffffffff1602179055506102e36000803373ffffffffffffffffffffffffffffffffffffffff1673ffffffffffffffffffffffffffffffffffffffff16815260200190815260200160002060009054906101000a900473ffffffffffffffffffffffffffffffffffffffff1661058e565b7f5d8b63f15287bdab6ff15f7cb53d683a8c7be345942343ae319510f5224a6d0133826040516103149291906108ae565b60405180910390a18091505090565b600073ffffffffffffffffffffffffffffffffffffffff166000803373ffffffffffffffffffffffffffffffffffffffff1673ffffffffffffffffffffffffffffffffffffffff16815260200190815260200160002060009054906101000a900473ffffffffffffffffffffffffffffffffffffffff1673ffffffffffffffffffffffffffffffffffffffff16036103f0576040517f08c379a00000000000000000000000000000000000000000000000000000000081526004016103e790610923565b60405180910390fd5b6000803373ffffffffffffffffffffffffffffffffffffffff1673ffffffffffffffffffffffffffffffffffffffff16815260200190815260200160002060006101000a81549073ffffffffffffffffffffffffffffffffffffffff0219169055565b6060600073ffffffffffffffffffffffffffffffffffffffff166000803373ffffffffffffffffffffffffffffffffffffffff1673ffffffffffffffffffffffffffffffffffffffff16815260200190815260200160002060009054906101000a900473ffffffffffffffffffffffffffffffffffffffff1673ffffffffffffffffffffffffffffffffffffffff1603610522576040517f08c379a000000000000000000000000000000000000000000000000000000000815260040161051990610923565b60405180910390fd5b6105896000803373ffffffffffffffffffffffffffffffffffffffff1673ffffffffffffffffffffffffffffffffffffffff16815260200190815260200160002060009054906101000a900473ffffffffffffffffffffffffffffffffffffffff166100c7565b905090565b610624816040516024016105a291906107b3565b6040516020818303038152906040527f2c2ecbc2000000000000000000000000000000000000000000000000000000007bffffffffffffffffffffffffffffffffffffffffffffffffffffffff19166020820180517bffffffffffffffffffffffffffffffffffffffffffffffffffffffff8381831617835250505050610627565b50565b60006a636f6e736f6c652e6c6f6790508151602083016000808383865afa5050505050565b6121108061094483390190565b600080fd5b600073ffffffffffffffffffffffffffffffffffffffff82169050919050565b60006106898261065e565b9050919050565b6106998161067e565b81146106a457600080fd5b50565b6000813590506106b681610690565b92915050565b6000602082840312156106d2576106d1610659565b5b60006106e0848285016106a7565b91505092915050565b600081519050919050565b600082825260208201905092915050565b60005b83811015610723578082015181840152602081019050610708565b83811115610732576000848401525b50505050565b6000601f19601f8301169050919050565b6000610754826106e9565b61075e81856106f4565b935061076e818560208601610705565b61077781610738565b840191505092915050565b6000602082019050818103600083015261079c8184610749565b905092915050565b6107ad8161067e565b82525050565b60006020820190506107c860008301846107a4565b92915050565b60008160601b9050919050565b60006107e6826107ce565b9050919050565b60006107f8826107db565b9050919050565b61081061080b8261067e565b6107ed565b82525050565b600061082282846107ff565b60148201915081905092915050565b600082825260208201905092915050565b7f526567697374727920616c726561647920657869737473000000000000000000600082015250565b6000610878601783610831565b915061088382610842565b602082019050919050565b600060208201905081810360008301526108a78161086b565b9050919050565b60006040820190506108c360008301856107a4565b6108d060208301846107a4565b9392505050565b7f526567697374727920646f6573206e6f74206578697374000000000000000000600082015250565b600061090d601783610831565b9150610918826108d7565b602082019050919050565b6000602082019050818103600083015261093c81610900565b905091905056fe60806040526000805560006001553480156200001a57600080fd5b506040516200211038038062002110833981810160405281019062000040919062000133565b80600360006101000a81548173ffffffffffffffffffffffffffffffffffffffff021916908373ffffffffffffffffffffffffffffffffffffffff16021790555033600260006101000a81548173ffffffffffffffffffffffffffffffffffffffff021916908373ffffffffffffffffffffffffffffffffffffffff1602179055505062000165565b600080fd5b600073ffffffffffffffffffffffffffffffffffffffff82169050919050565b6000620000fb82620000ce565b9050919050565b6200010d81620000ee565b81146200011957600080fd5b50565b6000815190506200012d8162000102565b92915050565b6000602082840312156200014c576200014b620000c9565b5b60006200015c848285016200011c565b91505092915050565b611f9b80620001756000396000f3fe608060405234801561001057600080fd5b50600436106100415760003560e01c80633b51675d1461004657806349f8880e14610062578063a04e318c14610080575b600080fd5b610060600480360381019061005b919061175b565b6100b5565b005b61006a610332565b6040516100779190611a08565b60405180910390f35b61009a60048036038101906100959190611a2a565b610702565b6040516100ac96959493929190611abf565b60405180910390f35b600360009054906101000a900473ffffffffffffffffffffffffffffffffffffffff1673ffffffffffffffffffffffffffffffffffffffff163373ffffffffffffffffffffffffffffffffffffffff1614610145576040517f08c379a000000000000000000000000000000000000000000000000000000000815260040161013c90611b88565b60405180910390fd5b60005b8351811015610207576101f484828151811061016757610166611ba8565b5b60200260200101516020015185838151811061018657610185611ba8565b5b6020026020010151604001518684815181106101a5576101a4611ba8565b5b6020026020010151606001518785815181106101c4576101c3611ba8565b5b6020026020010151608001518886815181106101e3576101e2611ba8565b5b602002602001015160a0015161096c565b80806101ff90611c06565b915050610148565b5060005b825181101561024a5761023783828151811061022a57610229611ba8565b5b6020026020010151610b23565b808061024290611c06565b91505061020b565b5060005b815181101561032c5761031982828151811061026d5761026c611ba8565b5b60200260200101516000015183838151811061028c5761028b611ba8565b5b6020026020010151602001518484815181106102ab576102aa611ba8565b5b6020026020010151604001518585815181106102ca576102c9611ba8565b5b6020026020010151606001518686815181106102e9576102e8611ba8565b5b60200260200101516080015187878151811061030857610307611ba8565b5b602002602001015160a00151610c8a565b808061032490611c06565b91505061024e565b50505050565b6060600360009054906101000a900473ffffffffffffffffffffffffffffffffffffffff1673ffffffffffffffffffffffffffffffffffffffff163373ffffffffffffffffffffffffffffffffffffffff16146103c4576040517f08c379a00000000000000000000000000000000000000000000000000000000081526004016103bb90611c9a565b60405180910390fd5b600060015467ffffffffffffffff8111156103e2576103e16112f8565b5b60405190808252806020026020018201604052801561041b57816020015b6104086111b1565b8152602001906001900390816104005790505b50905060005b6000548110156106fa5761043481610e48565b6106e757600460008281526020019081526020016000206040518060c00160405290816000820154815260200160018201805461047090611ce9565b80601f016020809104026020016040519081016040528092919081815260200182805461049c90611ce9565b80156104e95780601f106104be576101008083540402835291602001916104e9565b820191906000526020600020905b8154815290600101906020018083116104cc57829003601f168201915b5050505050815260200160028201805461050290611ce9565b80601f016020809104026020016040519081016040528092919081815260200182805461052e90611ce9565b801561057b5780601f106105505761010080835404028352916020019161057b565b820191906000526020600020905b81548152906001019060200180831161055e57829003601f168201915b5050505050815260200160038201805461059490611ce9565b80601f01602080910402602001604051908101604052809291908181526020018280546105c090611ce9565b801561060d5780601f106105e25761010080835404028352916020019161060d565b820191906000526020600020905b8154815290600101906020018083116105f057829003601f168201915b5050505050815260200160048201805461062690611ce9565b80601f016020809104026020016040519081016040528092919081815260200182805461065290611ce9565b801561069f5780601f106106745761010080835404028352916020019161069f565b820191906000526020600020905b81548152906001019060200180831161068257829003601f168201915b505050505081526020016005820160009054906101000a900461ffff1661ffff1661ffff16815250508282815181106106db576106da611ba8565b5b60200260200101819052505b80806106f290611c06565b915050610421565b508091505090565b600460205280600052604060002060009150905080600001549080600101805461072b90611ce9565b80601f016020809104026020016040519081016040528092919081815260200182805461075790611ce9565b80156107a45780601f10610779576101008083540402835291602001916107a4565b820191906000526020600020905b81548152906001019060200180831161078757829003601f168201915b5050505050908060020180546107b990611ce9565b80601f01602080910402602001604051908101604052809291908181526020018280546107e590611ce9565b80156108325780601f1061080757610100808354040283529160200191610832565b820191906000526020600020905b81548152906001019060200180831161081557829003601f168201915b50505050509080600301805461084790611ce9565b80601f016020809104026020016040519081016040528092919081815260200182805461087390611ce9565b80156108c05780601f10610895576101008083540402835291602001916108c0565b820191906000526020600020905b8154815290600101906020018083116108a357829003601f168201915b5050505050908060040180546108d590611ce9565b80601f016020809104026020016040519081016040528092919081815260200182805461090190611ce9565b801561094e5780601f106109235761010080835404028352916020019161094e565b820191906000526020600020905b81548152906001019060200180831161093157829003601f168201915b5050505050908060050160009054906101000a900461ffff16905086565b600360009054906101000a900473ffffffffffffffffffffffffffffffffffffffff1673ffffffffffffffffffffffffffffffffffffffff163373ffffffffffffffffffffffffffffffffffffffff16146109fc576040517f08c379a00000000000000000000000000000000000000000000000000000000081526004016109f390611d8c565b60405180910390fd5b60006040518060c0016040528060005481526020018781526020018681526020018581526020018481526020018361ffff168152509050806004600080548152602001908152602001600020600082015181600001556020820151816001019080519060200190610a6e9291906111eb565b506040820151816002019080519060200190610a8b9291906111eb565b506060820151816003019080519060200190610aa89291906111eb565b506080820151816004019080519060200190610ac59291906111eb565b5060a08201518160050160006101000a81548161ffff021916908361ffff160217905550905050600080815480929190610afe90611c06565b919050555060016000815480929190610b1690611c06565b9190505550505050505050565b600360009054906101000a900473ffffffffffffffffffffffffffffffffffffffff1673ffffffffffffffffffffffffffffffffffffffff163373ffffffffffffffffffffffffffffffffffffffff1614610bb3576040517f08c379a0000000000000000000000000000000000000000000000000000000008152600401610baa90611e1e565b60405180910390fd5b610bbc81610e48565b15610bfc576040517f08c379a0000000000000000000000000000000000000000000000000000000008152600401610bf390611e8a565b60405180910390fd5b60046000828152602001908152602001600020600080820160009055600182016000610c289190611271565b600282016000610c389190611271565b600382016000610c489190611271565b600482016000610c589190611271565b6005820160006101000a81549061ffff0219169055505060016000815480929190610c8290611eaa565b919050555050565b600360009054906101000a900473ffffffffffffffffffffffffffffffffffffffff1673ffffffffffffffffffffffffffffffffffffffff163373ffffffffffffffffffffffffffffffffffffffff1614610d1a576040517f08c379a0000000000000000000000000000000000000000000000000000000008152600401610d1190611f45565b60405180910390fd5b610d2386610e48565b15610d63576040517f08c379a0000000000000000000000000000000000000000000000000000000008152600401610d5a90611e8a565b60405180910390fd5b84600460008881526020019081526020016000206001019080519060200190610d8d9291906111eb565b5083600460008881526020019081526020016000206002019080519060200190610db89291906111eb565b5082600460008881526020019081526020016000206003019080519060200190610de39291906111eb565b5081600460008881526020019081526020016000206004019080519060200190610e0e9291906111eb565b50806004600088815260200190815260200160002060050160006101000a81548161ffff021916908361ffff160217905550505050505050565b600080600460008481526020019081526020016000206040518060c001604052908160008201548152602001600182018054610e8390611ce9565b80601f0160208091040260200160405190810160405280929190818152602001828054610eaf90611ce9565b8015610efc5780601f10610ed157610100808354040283529160200191610efc565b820191906000526020600020905b815481529060010190602001808311610edf57829003601f168201915b50505050508152602001600282018054610f1590611ce9565b80601f0160208091040260200160405190810160405280929190818152602001828054610f4190611ce9565b8015610f8e5780601f10610f6357610100808354040283529160200191610f8e565b820191906000526020600020905b815481529060010190602001808311610f7157829003601f168201915b50505050508152602001600382018054610fa790611ce9565b80601f0160208091040260200160405190810160405280929190818152602001828054610fd390611ce9565b80156110205780601f10610ff557610100808354040283529160200191611020565b820191906000526020600020905b81548152906001019060200180831161100357829003601f168201915b5050505050815260200160048201805461103990611ce9565b80601f016020809104026020016040519081016040528092919081815260200182805461106590611ce9565b80156110b25780601f10611087576101008083540402835291602001916110b2565b820191906000526020600020905b81548152906001019060200180831161109557829003601f168201915b505050505081526020016005820160009054906101000a900461ffff1661ffff1661ffff168152505090506000816000015114801561111157506040518060200160405280600081525080519060200120816020015180519060200120145b801561113d57506040518060200160405280600081525080519060200120816040015180519060200120145b801561116957506040518060200160405280600081525080519060200120816060015180519060200120145b801561119557506040518060200160405280600081525080519060200120816080015180519060200120145b80156111a9575060008160a0015161ffff16145b915050919050565b6040518060c001604052806000815260200160608152602001606081526020016060815260200160608152602001600061ffff1681525090565b8280546111f790611ce9565b90600052602060002090601f0160209004810192826112195760008555611260565b82601f1061123257805160ff1916838001178555611260565b82800160010185558215611260579182015b8281111561125f578251825591602001919060010190611244565b5b50905061126d91906112b1565b5090565b50805461127d90611ce9565b6000825580601f1061128f57506112ae565b601f0160209004906000526020600020908101906112ad91906112b1565b5b50565b5b808211156112ca5760008160009055506001016112b2565b5090565b6000604051905090565b600080fd5b600080fd5b600080fd5b6000601f19601f8301169050919050565b7f4e487b7100000000000000000000000000000000000000000000000000000000600052604160045260246000fd5b611330826112e7565b810181811067ffffffffffffffff8211171561134f5761134e6112f8565b5b80604052505050565b60006113626112ce565b905061136e8282611327565b919050565b600067ffffffffffffffff82111561138e5761138d6112f8565b5b602082029050602081019050919050565b600080fd5b600080fd5b600080fd5b6000819050919050565b6113c1816113ae565b81146113cc57600080fd5b50565b6000813590506113de816113b8565b92915050565b600080fd5b600067ffffffffffffffff821115611404576114036112f8565b5b61140d826112e7565b9050602081019050919050565b82818337600083830152505050565b600061143c611437846113e9565b611358565b905082815260208101848484011115611458576114576113e4565b5b61146384828561141a565b509392505050565b600082601f8301126114805761147f6112e2565b5b8135611490848260208601611429565b91505092915050565b600061ffff82169050919050565b6114b081611499565b81146114bb57600080fd5b50565b6000813590506114cd816114a7565b92915050565b600060c082840312156114e9576114e86113a4565b5b6114f360c0611358565b90506000611503848285016113cf565b600083015250602082013567ffffffffffffffff811115611527576115266113a9565b5b6115338482850161146b565b602083015250604082013567ffffffffffffffff811115611557576115566113a9565b5b6115638482850161146b565b604083015250606082013567ffffffffffffffff811115611587576115866113a9565b5b6115938482850161146b565b606083015250608082013567ffffffffffffffff8111156115b7576115b66113a9565b5b6115c38482850161146b565b60808301525060a06115d7848285016114be565b60a08301525092915050565b60006115f66115f184611373565b611358565b905080838252602082019050602084028301858111156116195761161861139f565b5b835b8181101561166057803567ffffffffffffffff81111561163e5761163d6112e2565b5b80860161164b89826114d3565b8552602085019450505060208101905061161b565b5050509392505050565b600082601f83011261167f5761167e6112e2565b5b813561168f8482602086016115e3565b91505092915050565b600067ffffffffffffffff8211156116b3576116b26112f8565b5b602082029050602081019050919050565b60006116d76116d284611698565b611358565b905080838252602082019050602084028301858111156116fa576116f961139f565b5b835b81811015611723578061170f88826113cf565b8452602084019350506020810190506116fc565b5050509392505050565b600082601f830112611742576117416112e2565b5b81356117528482602086016116c4565b91505092915050565b600080600060608486031215611774576117736112d8565b5b600084013567ffffffffffffffff811115611792576117916112dd565b5b61179e8682870161166a565b935050602084013567ffffffffffffffff8111156117bf576117be6112dd565b5b6117cb8682870161172d565b925050604084013567ffffffffffffffff8111156117ec576117eb6112dd565b5b6117f88682870161166a565b9150509250925092565b600081519050919050565b600082825260208201905092915050565b6000819050602082019050919050565b611837816113ae565b82525050565b600081519050919050565b600082825260208201905092915050565b60005b8381101561187757808201518184015260208101905061185c565b83811115611886576000848401525b50505050565b60006118978261183d565b6118a18185611848565b93506118b1818560208601611859565b6118ba816112e7565b840191505092915050565b6118ce81611499565b82525050565b600060c0830160008301516118ec600086018261182e565b5060208301518482036020860152611904828261188c565b9150506040830151848203604086015261191e828261188c565b91505060608301518482036060860152611938828261188c565b91505060808301518482036080860152611952828261188c565b91505060a083015161196760a08601826118c5565b508091505092915050565b600061197e83836118d4565b905092915050565b6000602082019050919050565b600061199e82611802565b6119a8818561180d565b9350836020820285016119ba8561181e565b8060005b858110156119f657848403895281516119d78582611972565b94506119e283611986565b925060208a019950506001810190506119be565b50829750879550505050505092915050565b60006020820190508181036000830152611a228184611993565b905092915050565b600060208284031215611a4057611a3f6112d8565b5b6000611a4e848285016113cf565b91505092915050565b611a60816113ae565b82525050565b600082825260208201905092915050565b6000611a828261183d565b611a8c8185611a66565b9350611a9c818560208601611859565b611aa5816112e7565b840191505092915050565b611ab981611499565b82525050565b600060c082019050611ad46000830189611a57565b8181036020830152611ae68188611a77565b90508181036040830152611afa8187611a77565b90508181036060830152611b0e8186611a77565b90508181036080830152611b228185611a77565b9050611b3160a0830184611ab0565b979650505050505050565b7f4f6e6c7920746865206f776e65722063616e2062617463682075706461746500600082015250565b6000611b72601f83611a66565b9150611b7d82611b3c565b602082019050919050565b60006020820190508181036000830152611ba181611b65565b9050919050565b7f4e487b7100000000000000000000000000000000000000000000000000000000600052603260045260246000fd5b7f4e487b7100000000000000000000000000000000000000000000000000000000600052601160045260246000fd5b6000611c11826113ae565b91507fffffffffffffffffffffffffffffffffffffffffffffffffffffffffffffffff8203611c4357611c42611bd7565b5b600182019050919050565b7f4f6e6c7920746865206f776e65722063616e206765742070617373776f726473600082015250565b6000611c84602083611a66565b9150611c8f82611c4e565b602082019050919050565b60006020820190508181036000830152611cb381611c77565b9050919050565b7f4e487b7100000000000000000000000000000000000000000000000000000000600052602260045260246000fd5b60006002820490506001821680611d0157607f821691505b602082108103611d1457611d13611cba565b5b50919050565b7f4f6e6c7920746865206f776e65722063616e2061646420612070617373776f7260008201527f6400000000000000000000000000000000000000000000000000000000000000602082015250565b6000611d76602183611a66565b9150611d8182611d1a565b604082019050919050565b60006020820190508181036000830152611da581611d69565b9050919050565b7f4f6e6c7920746865206f776e65722063616e2064656c6574652061207061737360008201527f776f726400000000000000000000000000000000000000000000000000000000602082015250565b6000611e08602483611a66565b9150611e1382611dac565b604082019050919050565b60006020820190508181036000830152611e3781611dfb565b9050919050565b7f50617373776f726420646f6573206e6f74206578697374000000000000000000600082015250565b6000611e74601783611a66565b9150611e7f82611e3e565b602082019050919050565b60006020820190508181036000830152611ea381611e67565b9050919050565b6000611eb5826113ae565b915060008203611ec857611ec7611bd7565b5b600182039050919050565b7f4f6e6c7920746865206f776e65722063616e207570646174652061207061737360008201527f776f726400000000000000000000000000000000000000000000000000000000602082015250565b6000611f2f602483611a66565b9150611f3a82611ed3565b604082019050919050565b60006020820190508181036000830152611f5e81611f22565b905091905056fea26469706673582212203be3a510791034492936953c8d1a4f5876872e301567e39f10defb6f925b1cd064736f6c634300080d0033a264697066735822122096ee14f86ad995439843041b5e7cf5fe4cf677827c234699df418ed5039d897764736f6c634300080d0033",
  "immutableReferences": {},
  "source": "pragma solidity ^0.8.13;\nimport \"./Registry.sol\";\nimport \"truffle/console.sol\";\n\ncontract Proxy {\n    event Creation(address _from, address _registry);\n    mapping(address => address) private registries;\n\n    constructor() {}\n\n    function createRegistry() public returns (address) {\n        require(\n            registries[msg.sender] == address(0),\n            \"Registry already exists\"\n        );\n        // create a new registry\n        Registry newReg = new Registry(msg.sender);\n\n        console.log(address(newReg));\n\n        // store the address of the new registry\n        registries[msg.sender] = address(newReg);\n        console.log(registries[msg.sender]);\n        emit Creation(msg.sender, address(newReg));\n        return address(newReg);\n    }\n\n    function getRegistryAddress() public view returns (bytes memory) {\n        require(\n            registries[msg.sender] != address(0),\n            \"Registry does not exist\"\n        );\n        // return the address of the registry\n        return toBytes(registries[msg.sender]);\n    }\n\n    function deleteRegistry() public {\n        require(\n            registries[msg.sender] != address(0),\n            \"Registry does not exist\"\n        );\n        // delete the registry\n        delete registries[msg.sender];\n    }\n\n    function toString(address _addr) internal pure returns (string memory) {\n        bytes32 value = bytes32(uint256(uint160(_addr)));\n        bytes memory alphabet = \"0123456789abcdef\";\n\n        bytes memory str = new bytes(42);\n        str[0] = \"0\";\n        str[1] = \"x\";\n\n        for (uint256 i = 0; i < 20; i++) {\n            str[2 + i * 2] = alphabet[uint8(value[i + 12] >> 4)];\n            str[3 + i * 2] = alphabet[uint8(value[i + 12] & 0x0f)];\n        }\n\n        return string(str);\n    }\n\n    function toBytes(address a) public pure returns (bytes memory) {\n        return abi.encodePacked(a);\n    }\n}\n",
  "sourcePath": "/Users/bennibbelink/FINALCONTRACT/backend/contracts/Proxy.sol",
  "compiler": {
    "name": "solc",
    "version": "0.8.13+commit.abaa5c0e.Emscripten.clang"
  },
  "schemaVersion": "3.4.13",
  "updatedAt": "2023-10-01T02:01:39.498Z",
  "networkType": "ethereum",
  "devdoc": {
    "kind": "dev",
    "methods": {},
    "version": 1
  },
  "userdoc": {
    "kind": "user",
    "methods": {},
    "version": 1
  }
}