{
  "contractName": "Proxy",
  "abi": [
    {
      "inputs": [],
      "stateMutability": "nonpayable",
      "type": "constructor"
    },
    {
      "anonymous": false,
      "inputs": [
        {
          "indexed": false,
          "internalType": "address",
          "name": "_from",
          "type": "address"
        },
        {
          "indexed": false,
          "internalType": "address",
          "name": "_registry",
          "type": "address"
        }
      ],
      "name": "Creation",
      "type": "event"
    },
    {
      "inputs": [],
      "name": "createRegistry",
      "outputs": [
        {
          "internalType": "address",
          "name": "",
          "type": "address"
        }
      ],
      "stateMutability": "nonpayable",
      "type": "function"
    },
    {
      "inputs": [],
      "name": "getRegistryAddress",
      "outputs": [
        {
          "internalType": "bytes",
          "name": "",
          "type": "bytes"
        }
      ],
      "stateMutability": "view",
      "type": "function",
      "constant": true
    },
    {
      "inputs": [],
      "name": "deleteRegistry",
      "outputs": [],
      "stateMutability": "nonpayable",
      "type": "function"
    },
    {
      "inputs": [
        {
          "internalType": "address",
          "name": "a",
          "type": "address"
        }
      ],
      "name": "toBytes",
      "outputs": [
        {
          "internalType": "bytes",
          "name": "",
          "type": "bytes"
        }
      ],
      "stateMutability": "pure",
      "type": "function",
      "constant": true
    }
  ],
  "bytecode": "0x608060405234801561001057600080fd5b50612ace806100206000396000f3fe608060405234801561001057600080fd5b506004361061004c5760003560e01c8063593b79fe14610051578063c72be0bb14610081578063ea305fc21461009f578063f21de1e8146100a9575b600080fd5b61006b600480360381019061006691906106bc565b6100c7565b6040516100789190610782565b60405180910390f35b6100896100f0565b60405161009691906107b3565b60405180910390f35b6100a7610323565b005b6100b1610453565b6040516100be9190610782565b60405180910390f35b6060816040516020016100da9190610816565b6040516020818303038152906040529050919050565b60008073ffffffffffffffffffffffffffffffffffffffff166000803373ffffffffffffffffffffffffffffffffffffffff1673ffffffffffffffffffffffffffffffffffffffff16815260200190815260200160002060009054906101000a900473ffffffffffffffffffffffffffffffffffffffff1673ffffffffffffffffffffffffffffffffffffffff16146101be576040517f08c379a00000000000000000000000000000000000000000000000000000000081526004016101b59061088e565b60405180910390fd5b6000336040516101cd9061064c565b6101d791906107b3565b604051809103906000f0801580156101f3573d6000803e3d6000fd5b5090506101ff8161058e565b806000803373ffffffffffffffffffffffffffffffffffffffff1673ffffffffffffffffffffffffffffffffffffffff16815260200190815260200160002060006101000a81548173ffffffffffffffffffffffffffffffffffffffff021916908373ffffffffffffffffffffffffffffffffffffffff1602179055506102e36000803373ffffffffffffffffffffffffffffffffffffffff1673ffffffffffffffffffffffffffffffffffffffff16815260200190815260200160002060009054906101000a900473ffffffffffffffffffffffffffffffffffffffff1661058e565b7f5d8b63f15287bdab6ff15f7cb53d683a8c7be345942343ae319510f5224a6d0133826040516103149291906108ae565b60405180910390a18091505090565b600073ffffffffffffffffffffffffffffffffffffffff166000803373ffffffffffffffffffffffffffffffffffffffff1673ffffffffffffffffffffffffffffffffffffffff16815260200190815260200160002060009054906101000a900473ffffffffffffffffffffffffffffffffffffffff1673ffffffffffffffffffffffffffffffffffffffff16036103f0576040517f08c379a00000000000000000000000000000000000000000000000000000000081526004016103e790610923565b60405180910390fd5b6000803373ffffffffffffffffffffffffffffffffffffffff1673ffffffffffffffffffffffffffffffffffffffff16815260200190815260200160002060006101000a81549073ffffffffffffffffffffffffffffffffffffffff0219169055565b6060600073ffffffffffffffffffffffffffffffffffffffff166000803373ffffffffffffffffffffffffffffffffffffffff1673ffffffffffffffffffffffffffffffffffffffff16815260200190815260200160002060009054906101000a900473ffffffffffffffffffffffffffffffffffffffff1673ffffffffffffffffffffffffffffffffffffffff1603610522576040517f08c379a000000000000000000000000000000000000000000000000000000000815260040161051990610923565b60405180910390fd5b6105896000803373ffffffffffffffffffffffffffffffffffffffff1673ffffffffffffffffffffffffffffffffffffffff16815260200190815260200160002060009054906101000a900473ffffffffffffffffffffffffffffffffffffffff166100c7565b905090565b610624816040516024016105a291906107b3565b6040516020818303038152906040527f2c2ecbc2000000000000000000000000000000000000000000000000000000007bffffffffffffffffffffffffffffffffffffffffffffffffffffffff19166020820180517bffffffffffffffffffffffffffffffffffffffffffffffffffffffff8381831617835250505050610627565b50565b60006a636f6e736f6c652e6c6f6790508151602083016000808383865afa5050505050565b6121558061094483390190565b600080fd5b600073ffffffffffffffffffffffffffffffffffffffff82169050919050565b60006106898261065e565b9050919050565b6106998161067e565b81146106a457600080fd5b50565b6000813590506106b681610690565b92915050565b6000602082840312156106d2576106d1610659565b5b60006106e0848285016106a7565b91505092915050565b600081519050919050565b600082825260208201905092915050565b60005b83811015610723578082015181840152602081019050610708565b83811115610732576000848401525b50505050565b6000601f19601f8301169050919050565b6000610754826106e9565b61075e81856106f4565b935061076e818560208601610705565b61077781610738565b840191505092915050565b6000602082019050818103600083015261079c8184610749565b905092915050565b6107ad8161067e565b82525050565b60006020820190506107c860008301846107a4565b92915050565b60008160601b9050919050565b60006107e6826107ce565b9050919050565b60006107f8826107db565b9050919050565b61081061080b8261067e565b6107ed565b82525050565b600061082282846107ff565b60148201915081905092915050565b600082825260208201905092915050565b7f526567697374727920616c726561647920657869737473000000000000000000600082015250565b6000610878601783610831565b915061088382610842565b602082019050919050565b600060208201905081810360008301526108a78161086b565b9050919050565b60006040820190506108c360008301856107a4565b6108d060208301846107a4565b9392505050565b7f526567697374727920646f6573206e6f74206578697374000000000000000000600082015250565b600061090d601783610831565b9150610918826108d7565b602082019050919050565b6000602082019050818103600083015261093c81610900565b905091905056fe6080604052600160005560006001553480156200001b57600080fd5b506040516200215538038062002155833981810160405281019062000041919062000134565b80600360006101000a81548173ffffffffffffffffffffffffffffffffffffffff021916908373ffffffffffffffffffffffffffffffffffffffff16021790555033600260006101000a81548173ffffffffffffffffffffffffffffffffffffffff021916908373ffffffffffffffffffffffffffffffffffffffff1602179055505062000166565b600080fd5b600073ffffffffffffffffffffffffffffffffffffffff82169050919050565b6000620000fc82620000cf565b9050919050565b6200010e81620000ef565b81146200011a57600080fd5b50565b6000815190506200012e8162000103565b92915050565b6000602082840312156200014d576200014c620000ca565b5b60006200015d848285016200011d565b91505092915050565b611fdf80620001766000396000f3fe608060405234801561001057600080fd5b50600436106100415760003560e01c80633b51675d1461004657806349f8880e14610062578063a04e318c14610080575b600080fd5b610060600480360381019061005b919061176b565b6100b5565b005b61006a610332565b6040516100779190611a18565b60405180910390f35b61009a60048036038101906100959190611a3a565b610712565b6040516100ac96959493929190611acf565b60405180910390f35b600360009054906101000a900473ffffffffffffffffffffffffffffffffffffffff1673ffffffffffffffffffffffffffffffffffffffff163373ffffffffffffffffffffffffffffffffffffffff1614610145576040517f08c379a000000000000000000000000000000000000000000000000000000000815260040161013c90611b98565b60405180910390fd5b60005b8351811015610207576101f484828151811061016757610166611bb8565b5b60200260200101516020015185838151811061018657610185611bb8565b5b6020026020010151604001518684815181106101a5576101a4611bb8565b5b6020026020010151606001518785815181106101c4576101c3611bb8565b5b6020026020010151608001518886815181106101e3576101e2611bb8565b5b602002602001015160a0015161097c565b80806101ff90611c16565b915050610148565b5060005b825181101561024a5761023783828151811061022a57610229611bb8565b5b6020026020010151610b33565b808061024290611c16565b91505061020b565b5060005b815181101561032c5761031982828151811061026d5761026c611bb8565b5b60200260200101516000015183838151811061028c5761028b611bb8565b5b6020026020010151602001518484815181106102ab576102aa611bb8565b5b6020026020010151604001518585815181106102ca576102c9611bb8565b5b6020026020010151606001518686815181106102e9576102e8611bb8565b5b60200260200101516080015187878151811061030857610307611bb8565b5b602002602001015160a00151610c9a565b808061032490611c16565b91505061024e565b50505050565b6060600360009054906101000a900473ffffffffffffffffffffffffffffffffffffffff1673ffffffffffffffffffffffffffffffffffffffff163373ffffffffffffffffffffffffffffffffffffffff16146103c4576040517f08c379a00000000000000000000000000000000000000000000000000000000081526004016103bb90611caa565b60405180910390fd5b600060015467ffffffffffffffff8111156103e2576103e1611308565b5b60405190808252806020026020018201604052801561041b57816020015b6104086111c1565b8152602001906001900390816104005790505b5090506000600190505b60005481101561070a5761043881610e58565b6106f757600460008281526020019081526020016000206040518060c00160405290816000820154815260200160018201805461047490611cf9565b80601f01602080910402602001604051908101604052809291908181526020018280546104a090611cf9565b80156104ed5780601f106104c2576101008083540402835291602001916104ed565b820191906000526020600020905b8154815290600101906020018083116104d057829003601f168201915b5050505050815260200160028201805461050690611cf9565b80601f016020809104026020016040519081016040528092919081815260200182805461053290611cf9565b801561057f5780601f106105545761010080835404028352916020019161057f565b820191906000526020600020905b81548152906001019060200180831161056257829003601f168201915b5050505050815260200160038201805461059890611cf9565b80601f01602080910402602001604051908101604052809291908181526020018280546105c490611cf9565b80156106115780601f106105e657610100808354040283529160200191610611565b820191906000526020600020905b8154815290600101906020018083116105f457829003601f168201915b5050505050815260200160048201805461062a90611cf9565b80601f016020809104026020016040519081016040528092919081815260200182805461065690611cf9565b80156106a35780601f10610678576101008083540402835291602001916106a3565b820191906000526020600020905b81548152906001019060200180831161068657829003601f168201915b505050505081526020016005820160009054906101000a900461ffff1661ffff1661ffff1681525050826001836106da9190611d2a565b815181106106eb576106ea611bb8565b5b60200260200101819052505b808061070290611c16565b915050610425565b508091505090565b600460205280600052604060002060009150905080600001549080600101805461073b90611cf9565b80601f016020809104026020016040519081016040528092919081815260200182805461076790611cf9565b80156107b45780601f10610789576101008083540402835291602001916107b4565b820191906000526020600020905b81548152906001019060200180831161079757829003601f168201915b5050505050908060020180546107c990611cf9565b80601f01602080910402602001604051908101604052809291908181526020018280546107f590611cf9565b80156108425780601f1061081757610100808354040283529160200191610842565b820191906000526020600020905b81548152906001019060200180831161082557829003601f168201915b50505050509080600301805461085790611cf9565b80601f016020809104026020016040519081016040528092919081815260200182805461088390611cf9565b80156108d05780601f106108a5576101008083540402835291602001916108d0565b820191906000526020600020905b8154815290600101906020018083116108b357829003601f168201915b5050505050908060040180546108e590611cf9565b80601f016020809104026020016040519081016040528092919081815260200182805461091190611cf9565b801561095e5780601f106109335761010080835404028352916020019161095e565b820191906000526020600020905b81548152906001019060200180831161094157829003601f168201915b5050505050908060050160009054906101000a900461ffff16905086565b600360009054906101000a900473ffffffffffffffffffffffffffffffffffffffff1673ffffffffffffffffffffffffffffffffffffffff163373ffffffffffffffffffffffffffffffffffffffff1614610a0c576040517f08c379a0000000000000000000000000000000000000000000000000000000008152600401610a0390611dd0565b60405180910390fd5b60006040518060c0016040528060005481526020018781526020018681526020018581526020018481526020018361ffff168152509050806004600080548152602001908152602001600020600082015181600001556020820151816001019080519060200190610a7e9291906111fb565b506040820151816002019080519060200190610a9b9291906111fb565b506060820151816003019080519060200190610ab89291906111fb565b506080820151816004019080519060200190610ad59291906111fb565b5060a08201518160050160006101000a81548161ffff021916908361ffff160217905550905050600080815480929190610b0e90611c16565b919050555060016000815480929190610b2690611c16565b9190505550505050505050565b600360009054906101000a900473ffffffffffffffffffffffffffffffffffffffff1673ffffffffffffffffffffffffffffffffffffffff163373ffffffffffffffffffffffffffffffffffffffff1614610bc3576040517f08c379a0000000000000000000000000000000000000000000000000000000008152600401610bba90611e62565b60405180910390fd5b610bcc81610e58565b15610c0c576040517f08c379a0000000000000000000000000000000000000000000000000000000008152600401610c0390611ece565b60405180910390fd5b60046000828152602001908152602001600020600080820160009055600182016000610c389190611281565b600282016000610c489190611281565b600382016000610c589190611281565b600482016000610c689190611281565b6005820160006101000a81549061ffff0219169055505060016000815480929190610c9290611eee565b919050555050565b600360009054906101000a900473ffffffffffffffffffffffffffffffffffffffff1673ffffffffffffffffffffffffffffffffffffffff163373ffffffffffffffffffffffffffffffffffffffff1614610d2a576040517f08c379a0000000000000000000000000000000000000000000000000000000008152600401610d2190611f89565b60405180910390fd5b610d3386610e58565b15610d73576040517f08c379a0000000000000000000000000000000000000000000000000000000008152600401610d6a90611ece565b60405180910390fd5b84600460008881526020019081526020016000206001019080519060200190610d9d9291906111fb565b5083600460008881526020019081526020016000206002019080519060200190610dc89291906111fb565b5082600460008881526020019081526020016000206003019080519060200190610df39291906111fb565b5081600460008881526020019081526020016000206004019080519060200190610e1e9291906111fb565b50806004600088815260200190815260200160002060050160006101000a81548161ffff021916908361ffff160217905550505050505050565b600080600460008481526020019081526020016000206040518060c001604052908160008201548152602001600182018054610e9390611cf9565b80601f0160208091040260200160405190810160405280929190818152602001828054610ebf90611cf9565b8015610f0c5780601f10610ee157610100808354040283529160200191610f0c565b820191906000526020600020905b815481529060010190602001808311610eef57829003601f168201915b50505050508152602001600282018054610f2590611cf9565b80601f0160208091040260200160405190810160405280929190818152602001828054610f5190611cf9565b8015610f9e5780601f10610f7357610100808354040283529160200191610f9e565b820191906000526020600020905b815481529060010190602001808311610f8157829003601f168201915b50505050508152602001600382018054610fb790611cf9565b80601f0160208091040260200160405190810160405280929190818152602001828054610fe390611cf9565b80156110305780601f1061100557610100808354040283529160200191611030565b820191906000526020600020905b81548152906001019060200180831161101357829003601f168201915b5050505050815260200160048201805461104990611cf9565b80601f016020809104026020016040519081016040528092919081815260200182805461107590611cf9565b80156110c25780601f10611097576101008083540402835291602001916110c2565b820191906000526020600020905b8154815290600101906020018083116110a557829003601f168201915b505050505081526020016005820160009054906101000a900461ffff1661ffff1661ffff168152505090506000816000015114801561112157506040518060200160405280600081525080519060200120816020015180519060200120145b801561114d57506040518060200160405280600081525080519060200120816040015180519060200120145b801561117957506040518060200160405280600081525080519060200120816060015180519060200120145b80156111a557506040518060200160405280600081525080519060200120816080015180519060200120145b80156111b9575060008160a0015161ffff16145b915050919050565b6040518060c001604052806000815260200160608152602001606081526020016060815260200160608152602001600061ffff1681525090565b82805461120790611cf9565b90600052602060002090601f0160209004810192826112295760008555611270565b82601f1061124257805160ff1916838001178555611270565b82800160010185558215611270579182015b8281111561126f578251825591602001919060010190611254565b5b50905061127d91906112c1565b5090565b50805461128d90611cf9565b6000825580601f1061129f57506112be565b601f0160209004906000526020600020908101906112bd91906112c1565b5b50565b5b808211156112da5760008160009055506001016112c2565b5090565b6000604051905090565b600080fd5b600080fd5b600080fd5b6000601f19601f8301169050919050565b7f4e487b7100000000000000000000000000000000000000000000000000000000600052604160045260246000fd5b611340826112f7565b810181811067ffffffffffffffff8211171561135f5761135e611308565b5b80604052505050565b60006113726112de565b905061137e8282611337565b919050565b600067ffffffffffffffff82111561139e5761139d611308565b5b602082029050602081019050919050565b600080fd5b600080fd5b600080fd5b6000819050919050565b6113d1816113be565b81146113dc57600080fd5b50565b6000813590506113ee816113c8565b92915050565b600080fd5b600067ffffffffffffffff82111561141457611413611308565b5b61141d826112f7565b9050602081019050919050565b82818337600083830152505050565b600061144c611447846113f9565b611368565b905082815260208101848484011115611468576114676113f4565b5b61147384828561142a565b509392505050565b600082601f8301126114905761148f6112f2565b5b81356114a0848260208601611439565b91505092915050565b600061ffff82169050919050565b6114c0816114a9565b81146114cb57600080fd5b50565b6000813590506114dd816114b7565b92915050565b600060c082840312156114f9576114f86113b4565b5b61150360c0611368565b90506000611513848285016113df565b600083015250602082013567ffffffffffffffff811115611537576115366113b9565b5b6115438482850161147b565b602083015250604082013567ffffffffffffffff811115611567576115666113b9565b5b6115738482850161147b565b604083015250606082013567ffffffffffffffff811115611597576115966113b9565b5b6115a38482850161147b565b606083015250608082013567ffffffffffffffff8111156115c7576115c66113b9565b5b6115d38482850161147b565b60808301525060a06115e7848285016114ce565b60a08301525092915050565b600061160661160184611383565b611368565b90508083825260208201905060208402830185811115611629576116286113af565b5b835b8181101561167057803567ffffffffffffffff81111561164e5761164d6112f2565b5b80860161165b89826114e3565b8552602085019450505060208101905061162b565b5050509392505050565b600082601f83011261168f5761168e6112f2565b5b813561169f8482602086016115f3565b91505092915050565b600067ffffffffffffffff8211156116c3576116c2611308565b5b602082029050602081019050919050565b60006116e76116e2846116a8565b611368565b9050808382526020820190506020840283018581111561170a576117096113af565b5b835b81811015611733578061171f88826113df565b84526020840193505060208101905061170c565b5050509392505050565b600082601f830112611752576117516112f2565b5b81356117628482602086016116d4565b91505092915050565b600080600060608486031215611784576117836112e8565b5b600084013567ffffffffffffffff8111156117a2576117a16112ed565b5b6117ae8682870161167a565b935050602084013567ffffffffffffffff8111156117cf576117ce6112ed565b5b6117db8682870161173d565b925050604084013567ffffffffffffffff8111156117fc576117fb6112ed565b5b6118088682870161167a565b9150509250925092565b600081519050919050565b600082825260208201905092915050565b6000819050602082019050919050565b611847816113be565b82525050565b600081519050919050565b600082825260208201905092915050565b60005b8381101561188757808201518184015260208101905061186c565b83811115611896576000848401525b50505050565b60006118a78261184d565b6118b18185611858565b93506118c1818560208601611869565b6118ca816112f7565b840191505092915050565b6118de816114a9565b82525050565b600060c0830160008301516118fc600086018261183e565b5060208301518482036020860152611914828261189c565b9150506040830151848203604086015261192e828261189c565b91505060608301518482036060860152611948828261189c565b91505060808301518482036080860152611962828261189c565b91505060a083015161197760a08601826118d5565b508091505092915050565b600061198e83836118e4565b905092915050565b6000602082019050919050565b60006119ae82611812565b6119b8818561181d565b9350836020820285016119ca8561182e565b8060005b85811015611a0657848403895281516119e78582611982565b94506119f283611996565b925060208a019950506001810190506119ce565b50829750879550505050505092915050565b60006020820190508181036000830152611a3281846119a3565b905092915050565b600060208284031215611a5057611a4f6112e8565b5b6000611a5e848285016113df565b91505092915050565b611a70816113be565b82525050565b600082825260208201905092915050565b6000611a928261184d565b611a9c8185611a76565b9350611aac818560208601611869565b611ab5816112f7565b840191505092915050565b611ac9816114a9565b82525050565b600060c082019050611ae46000830189611a67565b8181036020830152611af68188611a87565b90508181036040830152611b0a8187611a87565b90508181036060830152611b1e8186611a87565b90508181036080830152611b328185611a87565b9050611b4160a0830184611ac0565b979650505050505050565b7f4f6e6c7920746865206f776e65722063616e2062617463682075706461746500600082015250565b6000611b82601f83611a76565b9150611b8d82611b4c565b602082019050919050565b60006020820190508181036000830152611bb181611b75565b9050919050565b7f4e487b7100000000000000000000000000000000000000000000000000000000600052603260045260246000fd5b7f4e487b7100000000000000000000000000000000000000000000000000000000600052601160045260246000fd5b6000611c21826113be565b91507fffffffffffffffffffffffffffffffffffffffffffffffffffffffffffffffff8203611c5357611c52611be7565b5b600182019050919050565b7f4f6e6c7920746865206f776e65722063616e206765742070617373776f726473600082015250565b6000611c94602083611a76565b9150611c9f82611c5e565b602082019050919050565b60006020820190508181036000830152611cc381611c87565b9050919050565b7f4e487b7100000000000000000000000000000000000000000000000000000000600052602260045260246000fd5b60006002820490506001821680611d1157607f821691505b602082108103611d2457611d23611cca565b5b50919050565b6000611d35826113be565b9150611d40836113be565b925082821015611d5357611d52611be7565b5b828203905092915050565b7f4f6e6c7920746865206f776e65722063616e2061646420612070617373776f7260008201527f6400000000000000000000000000000000000000000000000000000000000000602082015250565b6000611dba602183611a76565b9150611dc582611d5e565b604082019050919050565b60006020820190508181036000830152611de981611dad565b9050919050565b7f4f6e6c7920746865206f776e65722063616e2064656c6574652061207061737360008201527f776f726400000000000000000000000000000000000000000000000000000000602082015250565b6000611e4c602483611a76565b9150611e5782611df0565b604082019050919050565b60006020820190508181036000830152611e7b81611e3f565b9050919050565b7f50617373776f726420646f6573206e6f74206578697374000000000000000000600082015250565b6000611eb8601783611a76565b9150611ec382611e82565b602082019050919050565b60006020820190508181036000830152611ee781611eab565b9050919050565b6000611ef9826113be565b915060008203611f0c57611f0b611be7565b5b600182039050919050565b7f4f6e6c7920746865206f776e65722063616e207570646174652061207061737360008201527f776f726400000000000000000000000000000000000000000000000000000000602082015250565b6000611f73602483611a76565b9150611f7e82611f17565b604082019050919050565b60006020820190508181036000830152611fa281611f66565b905091905056fea26469706673582212203843533edefe4e7788f78ed9d6ea028d5eb123e42a8feacaf9eb7d3e67c4d9d464736f6c634300080d0033a2646970667358221220d0f477a995fa9879e0a0c0b013c530e61d0ac7b0b20afbe55ca7a505e4dcf5fb64736f6c634300080d0033",
  "immutableReferences": {},
  "source": "pragma solidity ^0.8.13;\nimport \"./Registry.sol\";\nimport \"truffle/console.sol\";\n\ncontract Proxy {\n    event Creation(address _from, address _registry);\n    mapping(address => address) private registries;\n\n    constructor() {}\n\n    function createRegistry() public returns (address) {\n        require(\n            registries[msg.sender] == address(0),\n            \"Registry already exists\"\n        );\n        // create a new registry\n        Registry newReg = new Registry(msg.sender);\n\n        console.log(address(newReg));\n\n        // store the address of the new registry\n        registries[msg.sender] = address(newReg);\n        console.log(registries[msg.sender]);\n        emit Creation(msg.sender, address(newReg));\n        return address(newReg);\n    }\n\n    function getRegistryAddress() public view returns (bytes memory) {\n        require(\n            registries[msg.sender] != address(0),\n            \"Registry does not exist\"\n        );\n        // return the address of the registry\n        return toBytes(registries[msg.sender]);\n    }\n\n    function deleteRegistry() public {\n        require(\n            registries[msg.sender] != address(0),\n            \"Registry does not exist\"\n        );\n        // delete the registry\n        delete registries[msg.sender];\n    }\n\n    function toString(address _addr) internal pure returns (string memory) {\n        bytes32 value = bytes32(uint256(uint160(_addr)));\n        bytes memory alphabet = \"0123456789abcdef\";\n\n        bytes memory str = new bytes(42);\n        str[0] = \"0\";\n        str[1] = \"x\";\n\n        for (uint256 i = 0; i < 20; i++) {\n            str[2 + i * 2] = alphabet[uint8(value[i + 12] >> 4)];\n            str[3 + i * 2] = alphabet[uint8(value[i + 12] & 0x0f)];\n        }\n\n        return string(str);\n    }\n\n    function toBytes(address a) public pure returns (bytes memory) {\n        return abi.encodePacked(a);\n    }\n}\n",
  "sourcePath": "/Users/bennibbelink/FunctionalState/backend/contracts/Proxy.sol",
  "compiler": {
    "name": "solc",
    "version": "0.8.13+commit.abaa5c0e.Emscripten.clang"
  },
  "schemaVersion": "3.4.13",
  "updatedAt": "2023-10-01T01:41:27.769Z",
  "networkType": "ethereum",
  "devdoc": {
    "kind": "dev",
    "methods": {},
    "version": 1
  },
  "userdoc": {
    "kind": "user",
    "methods": {},
    "version": 1
  }
}