{
  "contractName": "Registry",
  "abi": [
    {
      "inputs": [
        {
          "internalType": "address",
          "name": "_owner",
          "type": "address"
        }
      ],
      "stateMutability": "nonpayable",
      "type": "constructor"
    },
    {
      "inputs": [
        {
          "internalType": "uint256",
          "name": "",
          "type": "uint256"
        }
      ],
      "name": "passwords",
      "outputs": [
        {
          "internalType": "uint256",
          "name": "id",
          "type": "uint256"
        },
        {
          "internalType": "string",
          "name": "nickname",
          "type": "string"
        },
        {
          "internalType": "string",
          "name": "password",
          "type": "string"
        },
        {
          "internalType": "string",
          "name": "username",
          "type": "string"
        },
        {
          "internalType": "string",
          "name": "domain",
          "type": "string"
        },
        {
          "internalType": "uint16",
          "name": "tag",
          "type": "uint16"
        }
      ],
      "stateMutability": "view",
      "type": "function"
    },
    {
      "inputs": [],
      "name": "getPasswords",
      "outputs": [
        {
          "components": [
            {
              "internalType": "uint256",
              "name": "id",
              "type": "uint256"
            },
            {
              "internalType": "string",
              "name": "nickname",
              "type": "string"
            },
            {
              "internalType": "string",
              "name": "password",
              "type": "string"
            },
            {
              "internalType": "string",
              "name": "username",
              "type": "string"
            },
            {
              "internalType": "string",
              "name": "domain",
              "type": "string"
            },
            {
              "internalType": "uint16",
              "name": "tag",
              "type": "uint16"
            }
          ],
          "internalType": "struct Password[]",
          "name": "",
          "type": "tuple[]"
        }
      ],
      "stateMutability": "view",
      "type": "function"
    },
    {
      "inputs": [
        {
          "components": [
            {
              "internalType": "uint256",
              "name": "id",
              "type": "uint256"
            },
            {
              "internalType": "string",
              "name": "nickname",
              "type": "string"
            },
            {
              "internalType": "string",
              "name": "password",
              "type": "string"
            },
            {
              "internalType": "string",
              "name": "username",
              "type": "string"
            },
            {
              "internalType": "string",
              "name": "domain",
              "type": "string"
            },
            {
              "internalType": "uint16",
              "name": "tag",
              "type": "uint16"
            }
          ],
          "internalType": "struct Password[]",
          "name": "adds",
          "type": "tuple[]"
        },
        {
          "internalType": "uint256[]",
          "name": "deletes",
          "type": "uint256[]"
        },
        {
          "components": [
            {
              "internalType": "uint256",
              "name": "id",
              "type": "uint256"
            },
            {
              "internalType": "string",
              "name": "nickname",
              "type": "string"
            },
            {
              "internalType": "string",
              "name": "password",
              "type": "string"
            },
            {
              "internalType": "string",
              "name": "username",
              "type": "string"
            },
            {
              "internalType": "string",
              "name": "domain",
              "type": "string"
            },
            {
              "internalType": "uint16",
              "name": "tag",
              "type": "uint16"
            }
          ],
          "internalType": "struct Password[]",
          "name": "updates",
          "type": "tuple[]"
        }
      ],
      "name": "batchUpdate",
      "outputs": [],
      "stateMutability": "nonpayable",
      "type": "function"
    }
  ],
  "bytecode": "0x60806040526000805560006001553480156200001a57600080fd5b5060405162001f1838038062001f18833981810160405281019062000040919062000133565b80600360006101000a81548173ffffffffffffffffffffffffffffffffffffffff021916908373ffffffffffffffffffffffffffffffffffffffff16021790555033600260006101000a81548173ffffffffffffffffffffffffffffffffffffffff021916908373ffffffffffffffffffffffffffffffffffffffff1602179055505062000165565b600080fd5b600073ffffffffffffffffffffffffffffffffffffffff82169050919050565b6000620000fb82620000ce565b9050919050565b6200010d81620000ee565b81146200011957600080fd5b50565b6000815190506200012d8162000102565b92915050565b6000602082840312156200014c576200014b620000c9565b5b60006200015c848285016200011c565b91505092915050565b611da380620001756000396000f3fe608060405234801561001057600080fd5b50600436106100415760003560e01c80633b51675d1461004657806349f8880e14610062578063a04e318c14610080575b600080fd5b610060600480360381019061005b919061163b565b6100b5565b005b61006a6102a2565b60405161007791906118e8565b60405180910390f35b61009a6004803603810190610095919061190a565b6105e2565b6040516100ac9695949392919061199f565b60405180910390f35b60005b8351811015610177576101648482815181106100d7576100d6611a1c565b5b6020026020010151602001518583815181106100f6576100f5611a1c565b5b60200260200101516040015186848151811061011557610114611a1c565b5b60200260200101516060015187858151811061013457610133611a1c565b5b60200260200101516080015188868151811061015357610152611a1c565b5b602002602001015160a0015161084c565b808061016f90611a7a565b9150506100b8565b5060005b82518110156101ba576101a783828151811061019a57610199611a1c565b5b6020026020010151610a03565b80806101b290611a7a565b91505061017b565b5060005b815181101561029c576102898282815181106101dd576101dc611a1c565b5b6020026020010151600001518383815181106101fc576101fb611a1c565b5b60200260200101516020015184848151811061021b5761021a611a1c565b5b60200260200101516040015185858151811061023a57610239611a1c565b5b60200260200101516060015186868151811061025957610258611a1c565b5b60200260200101516080015187878151811061027857610277611a1c565b5b602002602001015160a00151610b6a565b808061029490611a7a565b9150506101be565b50505050565b6060600060015467ffffffffffffffff8111156102c2576102c16111d8565b5b6040519080825280602002602001820160405280156102fb57816020015b6102e8611091565b8152602001906001900390816102e05790505b50905060005b6000548110156105da5761031481610d28565b6105c757600460008281526020019081526020016000206040518060c00160405290816000820154815260200160018201805461035090611af1565b80601f016020809104026020016040519081016040528092919081815260200182805461037c90611af1565b80156103c95780601f1061039e576101008083540402835291602001916103c9565b820191906000526020600020905b8154815290600101906020018083116103ac57829003601f168201915b505050505081526020016002820180546103e290611af1565b80601f016020809104026020016040519081016040528092919081815260200182805461040e90611af1565b801561045b5780601f106104305761010080835404028352916020019161045b565b820191906000526020600020905b81548152906001019060200180831161043e57829003601f168201915b5050505050815260200160038201805461047490611af1565b80601f01602080910402602001604051908101604052809291908181526020018280546104a090611af1565b80156104ed5780601f106104c2576101008083540402835291602001916104ed565b820191906000526020600020905b8154815290600101906020018083116104d057829003601f168201915b5050505050815260200160048201805461050690611af1565b80601f016020809104026020016040519081016040528092919081815260200182805461053290611af1565b801561057f5780601f106105545761010080835404028352916020019161057f565b820191906000526020600020905b81548152906001019060200180831161056257829003601f168201915b505050505081526020016005820160009054906101000a900461ffff1661ffff1661ffff16815250508282815181106105bb576105ba611a1c565b5b60200260200101819052505b80806105d290611a7a565b915050610301565b508091505090565b600460205280600052604060002060009150905080600001549080600101805461060b90611af1565b80601f016020809104026020016040519081016040528092919081815260200182805461063790611af1565b80156106845780601f1061065957610100808354040283529160200191610684565b820191906000526020600020905b81548152906001019060200180831161066757829003601f168201915b50505050509080600201805461069990611af1565b80601f01602080910402602001604051908101604052809291908181526020018280546106c590611af1565b80156107125780601f106106e757610100808354040283529160200191610712565b820191906000526020600020905b8154815290600101906020018083116106f557829003601f168201915b50505050509080600301805461072790611af1565b80601f016020809104026020016040519081016040528092919081815260200182805461075390611af1565b80156107a05780601f10610775576101008083540402835291602001916107a0565b820191906000526020600020905b81548152906001019060200180831161078357829003601f168201915b5050505050908060040180546107b590611af1565b80601f01602080910402602001604051908101604052809291908181526020018280546107e190611af1565b801561082e5780601f106108035761010080835404028352916020019161082e565b820191906000526020600020905b81548152906001019060200180831161081157829003601f168201915b5050505050908060050160009054906101000a900461ffff16905086565b600360009054906101000a900473ffffffffffffffffffffffffffffffffffffffff1673ffffffffffffffffffffffffffffffffffffffff163373ffffffffffffffffffffffffffffffffffffffff16146108dc576040517f08c379a00000000000000000000000000000000000000000000000000000000081526004016108d390611b94565b60405180910390fd5b60006040518060c0016040528060005481526020018781526020018681526020018581526020018481526020018361ffff16815250905080600460008054815260200190815260200160002060008201518160000155602082015181600101908051906020019061094e9291906110cb565b50604082015181600201908051906020019061096b9291906110cb565b5060608201518160030190805190602001906109889291906110cb565b5060808201518160040190805190602001906109a59291906110cb565b5060a08201518160050160006101000a81548161ffff021916908361ffff1602179055509050506000808154809291906109de90611a7a565b9190505550600160008154809291906109f690611a7a565b9190505550505050505050565b600360009054906101000a900473ffffffffffffffffffffffffffffffffffffffff1673ffffffffffffffffffffffffffffffffffffffff163373ffffffffffffffffffffffffffffffffffffffff1614610a93576040517f08c379a0000000000000000000000000000000000000000000000000000000008152600401610a8a90611c26565b60405180910390fd5b610a9c81610d28565b15610adc576040517f08c379a0000000000000000000000000000000000000000000000000000000008152600401610ad390611c92565b60405180910390fd5b60046000828152602001908152602001600020600080820160009055600182016000610b089190611151565b600282016000610b189190611151565b600382016000610b289190611151565b600482016000610b389190611151565b6005820160006101000a81549061ffff0219169055505060016000815480929190610b6290611cb2565b919050555050565b600360009054906101000a900473ffffffffffffffffffffffffffffffffffffffff1673ffffffffffffffffffffffffffffffffffffffff163373ffffffffffffffffffffffffffffffffffffffff1614610bfa576040517f08c379a0000000000000000000000000000000000000000000000000000000008152600401610bf190611d4d565b60405180910390fd5b610c0386610d28565b15610c43576040517f08c379a0000000000000000000000000000000000000000000000000000000008152600401610c3a90611c92565b60405180910390fd5b84600460008881526020019081526020016000206001019080519060200190610c6d9291906110cb565b5083600460008881526020019081526020016000206002019080519060200190610c989291906110cb565b5082600460008881526020019081526020016000206003019080519060200190610cc39291906110cb565b5081600460008881526020019081526020016000206004019080519060200190610cee9291906110cb565b50806004600088815260200190815260200160002060050160006101000a81548161ffff021916908361ffff160217905550505050505050565b600080600460008481526020019081526020016000206040518060c001604052908160008201548152602001600182018054610d6390611af1565b80601f0160208091040260200160405190810160405280929190818152602001828054610d8f90611af1565b8015610ddc5780601f10610db157610100808354040283529160200191610ddc565b820191906000526020600020905b815481529060010190602001808311610dbf57829003601f168201915b50505050508152602001600282018054610df590611af1565b80601f0160208091040260200160405190810160405280929190818152602001828054610e2190611af1565b8015610e6e5780601f10610e4357610100808354040283529160200191610e6e565b820191906000526020600020905b815481529060010190602001808311610e5157829003601f168201915b50505050508152602001600382018054610e8790611af1565b80601f0160208091040260200160405190810160405280929190818152602001828054610eb390611af1565b8015610f005780601f10610ed557610100808354040283529160200191610f00565b820191906000526020600020905b815481529060010190602001808311610ee357829003601f168201915b50505050508152602001600482018054610f1990611af1565b80601f0160208091040260200160405190810160405280929190818152602001828054610f4590611af1565b8015610f925780601f10610f6757610100808354040283529160200191610f92565b820191906000526020600020905b815481529060010190602001808311610f7557829003601f168201915b505050505081526020016005820160009054906101000a900461ffff1661ffff1661ffff1681525050905060008160000151148015610ff157506040518060200160405280600081525080519060200120816020015180519060200120145b801561101d57506040518060200160405280600081525080519060200120816040015180519060200120145b801561104957506040518060200160405280600081525080519060200120816060015180519060200120145b801561107557506040518060200160405280600081525080519060200120816080015180519060200120145b8015611089575060008160a0015161ffff16145b915050919050565b6040518060c001604052806000815260200160608152602001606081526020016060815260200160608152602001600061ffff1681525090565b8280546110d790611af1565b90600052602060002090601f0160209004810192826110f95760008555611140565b82601f1061111257805160ff1916838001178555611140565b82800160010185558215611140579182015b8281111561113f578251825591602001919060010190611124565b5b50905061114d9190611191565b5090565b50805461115d90611af1565b6000825580601f1061116f575061118e565b601f01602090049060005260206000209081019061118d9190611191565b5b50565b5b808211156111aa576000816000905550600101611192565b5090565b6000604051905090565b600080fd5b600080fd5b600080fd5b6000601f19601f8301169050919050565b7f4e487b7100000000000000000000000000000000000000000000000000000000600052604160045260246000fd5b611210826111c7565b810181811067ffffffffffffffff8211171561122f5761122e6111d8565b5b80604052505050565b60006112426111ae565b905061124e8282611207565b919050565b600067ffffffffffffffff82111561126e5761126d6111d8565b5b602082029050602081019050919050565b600080fd5b600080fd5b600080fd5b6000819050919050565b6112a18161128e565b81146112ac57600080fd5b50565b6000813590506112be81611298565b92915050565b600080fd5b600067ffffffffffffffff8211156112e4576112e36111d8565b5b6112ed826111c7565b9050602081019050919050565b82818337600083830152505050565b600061131c611317846112c9565b611238565b905082815260208101848484011115611338576113376112c4565b5b6113438482856112fa565b509392505050565b600082601f8301126113605761135f6111c2565b5b8135611370848260208601611309565b91505092915050565b600061ffff82169050919050565b61139081611379565b811461139b57600080fd5b50565b6000813590506113ad81611387565b92915050565b600060c082840312156113c9576113c8611284565b5b6113d360c0611238565b905060006113e3848285016112af565b600083015250602082013567ffffffffffffffff81111561140757611406611289565b5b6114138482850161134b565b602083015250604082013567ffffffffffffffff81111561143757611436611289565b5b6114438482850161134b565b604083015250606082013567ffffffffffffffff81111561146757611466611289565b5b6114738482850161134b565b606083015250608082013567ffffffffffffffff81111561149757611496611289565b5b6114a38482850161134b565b60808301525060a06114b78482850161139e565b60a08301525092915050565b60006114d66114d184611253565b611238565b905080838252602082019050602084028301858111156114f9576114f861127f565b5b835b8181101561154057803567ffffffffffffffff81111561151e5761151d6111c2565b5b80860161152b89826113b3565b855260208501945050506020810190506114fb565b5050509392505050565b600082601f83011261155f5761155e6111c2565b5b813561156f8482602086016114c3565b91505092915050565b600067ffffffffffffffff821115611593576115926111d8565b5b602082029050602081019050919050565b60006115b76115b284611578565b611238565b905080838252602082019050602084028301858111156115da576115d961127f565b5b835b8181101561160357806115ef88826112af565b8452602084019350506020810190506115dc565b5050509392505050565b600082601f830112611622576116216111c2565b5b81356116328482602086016115a4565b91505092915050565b600080600060608486031215611654576116536111b8565b5b600084013567ffffffffffffffff811115611672576116716111bd565b5b61167e8682870161154a565b935050602084013567ffffffffffffffff81111561169f5761169e6111bd565b5b6116ab8682870161160d565b925050604084013567ffffffffffffffff8111156116cc576116cb6111bd565b5b6116d88682870161154a565b9150509250925092565b600081519050919050565b600082825260208201905092915050565b6000819050602082019050919050565b6117178161128e565b82525050565b600081519050919050565b600082825260208201905092915050565b60005b8381101561175757808201518184015260208101905061173c565b83811115611766576000848401525b50505050565b60006117778261171d565b6117818185611728565b9350611791818560208601611739565b61179a816111c7565b840191505092915050565b6117ae81611379565b82525050565b600060c0830160008301516117cc600086018261170e565b50602083015184820360208601526117e4828261176c565b915050604083015184820360408601526117fe828261176c565b91505060608301518482036060860152611818828261176c565b91505060808301518482036080860152611832828261176c565b91505060a083015161184760a08601826117a5565b508091505092915050565b600061185e83836117b4565b905092915050565b6000602082019050919050565b600061187e826116e2565b61188881856116ed565b93508360208202850161189a856116fe565b8060005b858110156118d657848403895281516118b78582611852565b94506118c283611866565b925060208a0199505060018101905061189e565b50829750879550505050505092915050565b600060208201905081810360008301526119028184611873565b905092915050565b6000602082840312156119205761191f6111b8565b5b600061192e848285016112af565b91505092915050565b6119408161128e565b82525050565b600082825260208201905092915050565b60006119628261171d565b61196c8185611946565b935061197c818560208601611739565b611985816111c7565b840191505092915050565b61199981611379565b82525050565b600060c0820190506119b46000830189611937565b81810360208301526119c68188611957565b905081810360408301526119da8187611957565b905081810360608301526119ee8186611957565b90508181036080830152611a028185611957565b9050611a1160a0830184611990565b979650505050505050565b7f4e487b7100000000000000000000000000000000000000000000000000000000600052603260045260246000fd5b7f4e487b7100000000000000000000000000000000000000000000000000000000600052601160045260246000fd5b6000611a858261128e565b91507fffffffffffffffffffffffffffffffffffffffffffffffffffffffffffffffff8203611ab757611ab6611a4b565b5b600182019050919050565b7f4e487b7100000000000000000000000000000000000000000000000000000000600052602260045260246000fd5b60006002820490506001821680611b0957607f821691505b602082108103611b1c57611b1b611ac2565b5b50919050565b7f4f6e6c7920746865206f776e65722063616e2061646420612070617373776f7260008201527f6400000000000000000000000000000000000000000000000000000000000000602082015250565b6000611b7e602183611946565b9150611b8982611b22565b604082019050919050565b60006020820190508181036000830152611bad81611b71565b9050919050565b7f4f6e6c7920746865206f776e65722063616e2064656c6574652061207061737360008201527f776f726400000000000000000000000000000000000000000000000000000000602082015250565b6000611c10602483611946565b9150611c1b82611bb4565b604082019050919050565b60006020820190508181036000830152611c3f81611c03565b9050919050565b7f50617373776f726420646f6573206e6f74206578697374000000000000000000600082015250565b6000611c7c601783611946565b9150611c8782611c46565b602082019050919050565b60006020820190508181036000830152611cab81611c6f565b9050919050565b6000611cbd8261128e565b915060008203611cd057611ccf611a4b565b5b600182039050919050565b7f4f6e6c7920746865206f776e65722063616e207570646174652061207061737360008201527f776f726400000000000000000000000000000000000000000000000000000000602082015250565b6000611d37602483611946565b9150611d4282611cdb565b604082019050919050565b60006020820190508181036000830152611d6681611d2a565b905091905056fea264697066735822122056f07c5f569eaf5e72672e94260df0e1ebe0e2d382c92c268030a508990490ca64736f6c634300080d0033",
  "immutableReferences": {},
  "source": "pragma solidity ^0.8.13;\n\nstruct Password {\n    uint id;\n    string nickname;\n    string password;\n    string username;\n    string domain;\n    uint16 tag;\n}\n\ncontract Registry {\n\n    // the current next id for a Password\n    uint currId = 0;\n\n    // the number of passwords in the registry\n    uint numPasswords = 0;\n\n    // the address of the Proxy contract\n    address private proxy;\n\n    // the address of the user who created this registry\n    address private owner;\n\n    // maps the Password id to the Password struct\n    mapping (uint => Password) public passwords;\n\n    constructor(address _owner) {\n        owner = _owner;\n        proxy = msg.sender;\n    }\n\n    function getPasswords() public view returns (Password[] memory) {\n        Password[] memory _passwords = new Password[](numPasswords);\n        // iterate through all the passwords up to currId\n        for (uint i = 0; i < currId; i++) {\n            if (!isPasswordEmpty(i)) {\n                _passwords[i] = passwords[i];\n            }\n        }\n        return _passwords;\n    }\n\n    function batchUpdate(Password[] memory adds, uint[] memory deletes, Password[] memory updates) public {\n        for (uint i = 0; i < adds.length; i++) {\n            addPassword(adds[i].nickname, adds[i].password, adds[i].username, adds[i].domain, adds[i].tag);\n        }\n        for (uint i = 0; i < deletes.length; i++) {\n            deletePassword(deletes[i]);\n        }\n        for (uint i = 0; i < updates.length; i++) {\n            updatePassword(updates[i].id, updates[i].nickname, updates[i].password, updates[i].username, updates[i].domain, updates[i].tag);\n        }\n    }\n\n    function addPassword(string memory _nickname, string memory _password, string memory _username, string memory _domain, uint16 _tag) private {\n        // only the owner of the registry can add a password\n        require(msg.sender == owner, \"Only the owner can add a password\");\n        // create a new Password struct\n        Password memory p = Password(currId, _nickname, _password, _username, _domain, _tag);\n        // add the password to the registry\n        passwords[currId] = p;\n        // increment the current id\n        currId++;\n        // increment the number of passwords\n        numPasswords++;\n    }\n\n    function updatePassword(uint id, string memory _nickname, string memory _password, string memory _username, string memory _domain, uint16 _tag) private {\n        // only the owner of the registry can update a password\n        require(msg.sender == owner, \"Only the owner can update a password\");\n        // make sure the password exists\n        require(!isPasswordEmpty(id), \"Password does not exist\");\n        // update the password\n        passwords[id].nickname = _nickname;\n        passwords[id].password = _password;\n        passwords[id].username = _username;\n        passwords[id].domain = _domain;\n        passwords[id].tag = _tag;\n    }\n\n    function deletePassword(uint id) private {\n        // only the owner of the registry can delete a password\n        require(msg.sender == owner, \"Only the owner can delete a password\");\n        // make sure the password exists\n        require(!isPasswordEmpty(id), \"Password does not exist\");\n        // delete the password\n        delete passwords[id];\n        // decrement the number of passwords\n        numPasswords--;\n    }\n\n    function isPasswordEmpty(uint id) private view returns (bool) {\n        Password memory p = passwords[id];\n        return p.id == 0 && \n            keccak256(bytes(p.nickname)) == keccak256(bytes(\"\")) &&\n            keccak256(bytes(p.password)) == keccak256(bytes(\"\")) && \n            keccak256(bytes(p.username)) == keccak256(bytes(\"\")) && \n            keccak256(bytes(p.domain)) == keccak256(bytes(\"\"))  && \n            p.tag == 0;\n    }\n\n}",
  "sourcePath": "/Users/bennibbelink/FunctionalState/backend/contracts/Registry.sol",
  "compiler": {
    "name": "solc",
    "version": "0.8.13+commit.abaa5c0e.Emscripten.clang"
  },
  "schemaVersion": "3.4.13",
  "updatedAt": "2023-10-01T01:12:50.794Z",
  "networkType": "ethereum",
  "devdoc": {
    "kind": "dev",
    "methods": {},
    "version": 1
  },
  "userdoc": {
    "kind": "user",
    "methods": {},
    "version": 1
  }
}