{
  "contractName": "Registry",
  "abi": [
    {
      "inputs": [
        {
          "internalType": "address",
          "name": "_owner",
          "type": "address"
        }
      ],
      "stateMutability": "nonpayable",
      "type": "constructor"
    },
    {
      "inputs": [
        {
          "internalType": "uint256",
          "name": "",
          "type": "uint256"
        }
      ],
      "name": "passwords",
      "outputs": [
        {
          "internalType": "uint256",
          "name": "id",
          "type": "uint256"
        },
        {
          "internalType": "string",
          "name": "nickname",
          "type": "string"
        },
        {
          "internalType": "string",
          "name": "password",
          "type": "string"
        },
        {
          "internalType": "string",
          "name": "username",
          "type": "string"
        },
        {
          "internalType": "string",
          "name": "domain",
          "type": "string"
        },
        {
          "internalType": "uint16",
          "name": "tag",
          "type": "uint16"
        }
      ],
      "stateMutability": "view",
      "type": "function"
    },
    {
      "inputs": [],
      "name": "getPasswords",
      "outputs": [
        {
          "components": [
            {
              "internalType": "uint256",
              "name": "id",
              "type": "uint256"
            },
            {
              "internalType": "string",
              "name": "nickname",
              "type": "string"
            },
            {
              "internalType": "string",
              "name": "password",
              "type": "string"
            },
            {
              "internalType": "string",
              "name": "username",
              "type": "string"
            },
            {
              "internalType": "string",
              "name": "domain",
              "type": "string"
            },
            {
              "internalType": "uint16",
              "name": "tag",
              "type": "uint16"
            }
          ],
          "internalType": "struct Password[]",
          "name": "",
          "type": "tuple[]"
        }
      ],
      "stateMutability": "view",
      "type": "function"
    },
    {
      "inputs": [
        {
          "internalType": "string",
          "name": "_nickname",
          "type": "string"
        },
        {
          "internalType": "string",
          "name": "_password",
          "type": "string"
        },
        {
          "internalType": "string",
          "name": "_username",
          "type": "string"
        },
        {
          "internalType": "string",
          "name": "_domain",
          "type": "string"
        },
        {
          "internalType": "uint16",
          "name": "_tag",
          "type": "uint16"
        }
      ],
      "name": "addPassword",
      "outputs": [],
      "stateMutability": "nonpayable",
      "type": "function"
    },
    {
      "inputs": [
        {
          "internalType": "uint256",
          "name": "id",
          "type": "uint256"
        },
        {
          "internalType": "string",
          "name": "_nickname",
          "type": "string"
        },
        {
          "internalType": "string",
          "name": "_password",
          "type": "string"
        },
        {
          "internalType": "string",
          "name": "_username",
          "type": "string"
        },
        {
          "internalType": "string",
          "name": "_domain",
          "type": "string"
        },
        {
          "internalType": "uint16",
          "name": "_tag",
          "type": "uint16"
        }
      ],
      "name": "updatePassword",
      "outputs": [],
      "stateMutability": "nonpayable",
      "type": "function"
    },
    {
      "inputs": [
        {
          "internalType": "uint256",
          "name": "id",
          "type": "uint256"
        }
      ],
      "name": "deletePassword",
      "outputs": [],
      "stateMutability": "nonpayable",
      "type": "function"
    }
  ],
  "bytecode": "0x60806040526000805560006001553480156200001a57600080fd5b5060405162001bf738038062001bf7833981810160405281019062000040919062000133565b80600360006101000a81548173ffffffffffffffffffffffffffffffffffffffff021916908373ffffffffffffffffffffffffffffffffffffffff16021790555033600260006101000a81548173ffffffffffffffffffffffffffffffffffffffff021916908373ffffffffffffffffffffffffffffffffffffffff1602179055505062000165565b600080fd5b600073ffffffffffffffffffffffffffffffffffffffff82169050919050565b6000620000fb82620000ce565b9050919050565b6200010d81620000ee565b81146200011957600080fd5b50565b6000815190506200012d8162000102565b92915050565b6000602082840312156200014c576200014b620000c9565b5b60006200015c848285016200011c565b91505092915050565b611a8280620001756000396000f3fe608060405234801561001057600080fd5b50600436106100575760003560e01c806349f8880e1461005c57806356df91dd1461007a578063a04e318c14610096578063b715e812146100cb578063c3b3863c146100e7575b600080fd5b610064610103565b604051610071919061123e565b60405180910390f35b610094600480360381019061008f9190611401565b610443565b005b6100b060048036038101906100ab91906114fe565b610601565b6040516100c296959493929190611593565b60405180910390f35b6100e560048036038101906100e09190611610565b61086b565b005b61010160048036038101906100fc91906114fe565b610a22565b005b6060600060015467ffffffffffffffff811115610123576101226112aa565b5b60405190808252806020026020018201604052801561015c57816020015b610149610ef2565b8152602001906001900390816101415790505b50905060005b60005481101561043b5761017581610b89565b61042857600460008281526020019081526020016000206040518060c0016040529081600082015481526020016001820180546101b19061172a565b80601f01602080910402602001604051908101604052809291908181526020018280546101dd9061172a565b801561022a5780601f106101ff5761010080835404028352916020019161022a565b820191906000526020600020905b81548152906001019060200180831161020d57829003601f168201915b505050505081526020016002820180546102439061172a565b80601f016020809104026020016040519081016040528092919081815260200182805461026f9061172a565b80156102bc5780601f10610291576101008083540402835291602001916102bc565b820191906000526020600020905b81548152906001019060200180831161029f57829003601f168201915b505050505081526020016003820180546102d59061172a565b80601f01602080910402602001604051908101604052809291908181526020018280546103019061172a565b801561034e5780601f106103235761010080835404028352916020019161034e565b820191906000526020600020905b81548152906001019060200180831161033157829003601f168201915b505050505081526020016004820180546103679061172a565b80601f01602080910402602001604051908101604052809291908181526020018280546103939061172a565b80156103e05780601f106103b5576101008083540402835291602001916103e0565b820191906000526020600020905b8154815290600101906020018083116103c357829003601f168201915b505050505081526020016005820160009054906101000a900461ffff1661ffff1661ffff168152505082828151811061041c5761041b61175b565b5b60200260200101819052505b8080610433906117b9565b915050610162565b508091505090565b600360009054906101000a900473ffffffffffffffffffffffffffffffffffffffff1673ffffffffffffffffffffffffffffffffffffffff163373ffffffffffffffffffffffffffffffffffffffff16146104d3576040517f08c379a00000000000000000000000000000000000000000000000000000000081526004016104ca90611873565b60405180910390fd5b6104dc86610b89565b1561051c576040517f08c379a0000000000000000000000000000000000000000000000000000000008152600401610513906118df565b60405180910390fd5b84600460008881526020019081526020016000206001019080519060200190610546929190610f2c565b5083600460008881526020019081526020016000206002019080519060200190610571929190610f2c565b508260046000888152602001908152602001600020600301908051906020019061059c929190610f2c565b50816004600088815260200190815260200160002060040190805190602001906105c7929190610f2c565b50806004600088815260200190815260200160002060050160006101000a81548161ffff021916908361ffff160217905550505050505050565b600460205280600052604060002060009150905080600001549080600101805461062a9061172a565b80601f01602080910402602001604051908101604052809291908181526020018280546106569061172a565b80156106a35780601f10610678576101008083540402835291602001916106a3565b820191906000526020600020905b81548152906001019060200180831161068657829003601f168201915b5050505050908060020180546106b89061172a565b80601f01602080910402602001604051908101604052809291908181526020018280546106e49061172a565b80156107315780601f1061070657610100808354040283529160200191610731565b820191906000526020600020905b81548152906001019060200180831161071457829003601f168201915b5050505050908060030180546107469061172a565b80601f01602080910402602001604051908101604052809291908181526020018280546107729061172a565b80156107bf5780601f10610794576101008083540402835291602001916107bf565b820191906000526020600020905b8154815290600101906020018083116107a257829003601f168201915b5050505050908060040180546107d49061172a565b80601f01602080910402602001604051908101604052809291908181526020018280546108009061172a565b801561084d5780601f106108225761010080835404028352916020019161084d565b820191906000526020600020905b81548152906001019060200180831161083057829003601f168201915b5050505050908060050160009054906101000a900461ffff16905086565b600360009054906101000a900473ffffffffffffffffffffffffffffffffffffffff1673ffffffffffffffffffffffffffffffffffffffff163373ffffffffffffffffffffffffffffffffffffffff16146108fb576040517f08c379a00000000000000000000000000000000000000000000000000000000081526004016108f290611971565b60405180910390fd5b60006040518060c0016040528060005481526020018781526020018681526020018581526020018481526020018361ffff16815250905080600460008054815260200190815260200160002060008201518160000155602082015181600101908051906020019061096d929190610f2c565b50604082015181600201908051906020019061098a929190610f2c565b5060608201518160030190805190602001906109a7929190610f2c565b5060808201518160040190805190602001906109c4929190610f2c565b5060a08201518160050160006101000a81548161ffff021916908361ffff1602179055509050506000808154809291906109fd906117b9565b919050555060016000815480929190610a15906117b9565b9190505550505050505050565b600360009054906101000a900473ffffffffffffffffffffffffffffffffffffffff1673ffffffffffffffffffffffffffffffffffffffff163373ffffffffffffffffffffffffffffffffffffffff1614610ab2576040517f08c379a0000000000000000000000000000000000000000000000000000000008152600401610aa990611a03565b60405180910390fd5b610abb81610b89565b15610afb576040517f08c379a0000000000000000000000000000000000000000000000000000000008152600401610af2906118df565b60405180910390fd5b60046000828152602001908152602001600020600080820160009055600182016000610b279190610fb2565b600282016000610b379190610fb2565b600382016000610b479190610fb2565b600482016000610b579190610fb2565b6005820160006101000a81549061ffff0219169055505060016000815480929190610b8190611a23565b919050555050565b600080600460008481526020019081526020016000206040518060c001604052908160008201548152602001600182018054610bc49061172a565b80601f0160208091040260200160405190810160405280929190818152602001828054610bf09061172a565b8015610c3d5780601f10610c1257610100808354040283529160200191610c3d565b820191906000526020600020905b815481529060010190602001808311610c2057829003601f168201915b50505050508152602001600282018054610c569061172a565b80601f0160208091040260200160405190810160405280929190818152602001828054610c829061172a565b8015610ccf5780601f10610ca457610100808354040283529160200191610ccf565b820191906000526020600020905b815481529060010190602001808311610cb257829003601f168201915b50505050508152602001600382018054610ce89061172a565b80601f0160208091040260200160405190810160405280929190818152602001828054610d149061172a565b8015610d615780601f10610d3657610100808354040283529160200191610d61565b820191906000526020600020905b815481529060010190602001808311610d4457829003601f168201915b50505050508152602001600482018054610d7a9061172a565b80601f0160208091040260200160405190810160405280929190818152602001828054610da69061172a565b8015610df35780601f10610dc857610100808354040283529160200191610df3565b820191906000526020600020905b815481529060010190602001808311610dd657829003601f168201915b505050505081526020016005820160009054906101000a900461ffff1661ffff1661ffff1681525050905060008160000151148015610e5257506040518060200160405280600081525080519060200120816020015180519060200120145b8015610e7e57506040518060200160405280600081525080519060200120816040015180519060200120145b8015610eaa57506040518060200160405280600081525080519060200120816060015180519060200120145b8015610ed657506040518060200160405280600081525080519060200120816080015180519060200120145b8015610eea575060008160a0015161ffff16145b915050919050565b6040518060c001604052806000815260200160608152602001606081526020016060815260200160608152602001600061ffff1681525090565b828054610f389061172a565b90600052602060002090601f016020900481019282610f5a5760008555610fa1565b82601f10610f7357805160ff1916838001178555610fa1565b82800160010185558215610fa1579182015b82811115610fa0578251825591602001919060010190610f85565b5b509050610fae9190610ff2565b5090565b508054610fbe9061172a565b6000825580601f10610fd05750610fef565b601f016020900490600052602060002090810190610fee9190610ff2565b5b50565b5b8082111561100b576000816000905550600101610ff3565b5090565b600081519050919050565b600082825260208201905092915050565b6000819050602082019050919050565b6000819050919050565b61104e8161103b565b82525050565b600081519050919050565b600082825260208201905092915050565b60005b8381101561108e578082015181840152602081019050611073565b8381111561109d576000848401525b50505050565b6000601f19601f8301169050919050565b60006110bf82611054565b6110c9818561105f565b93506110d9818560208601611070565b6110e2816110a3565b840191505092915050565b600061ffff82169050919050565b611104816110ed565b82525050565b600060c0830160008301516111226000860182611045565b506020830151848203602086015261113a82826110b4565b9150506040830151848203604086015261115482826110b4565b9150506060830151848203606086015261116e82826110b4565b9150506080830151848203608086015261118882826110b4565b91505060a083015161119d60a08601826110fb565b508091505092915050565b60006111b4838361110a565b905092915050565b6000602082019050919050565b60006111d48261100f565b6111de818561101a565b9350836020820285016111f08561102b565b8060005b8581101561122c578484038952815161120d85826111a8565b9450611218836111bc565b925060208a019950506001810190506111f4565b50829750879550505050505092915050565b6000602082019050818103600083015261125881846111c9565b905092915050565b6000604051905090565b600080fd5b600080fd5b61127d8161103b565b811461128857600080fd5b50565b60008135905061129a81611274565b92915050565b600080fd5b600080fd5b7f4e487b7100000000000000000000000000000000000000000000000000000000600052604160045260246000fd5b6112e2826110a3565b810181811067ffffffffffffffff82111715611301576113006112aa565b5b80604052505050565b6000611314611260565b905061132082826112d9565b919050565b600067ffffffffffffffff8211156113405761133f6112aa565b5b611349826110a3565b9050602081019050919050565b82818337600083830152505050565b600061137861137384611325565b61130a565b905082815260208101848484011115611394576113936112a5565b5b61139f848285611356565b509392505050565b600082601f8301126113bc576113bb6112a0565b5b81356113cc848260208601611365565b91505092915050565b6113de816110ed565b81146113e957600080fd5b50565b6000813590506113fb816113d5565b92915050565b60008060008060008060c0878903121561141e5761141d61126a565b5b600061142c89828a0161128b565b965050602087013567ffffffffffffffff81111561144d5761144c61126f565b5b61145989828a016113a7565b955050604087013567ffffffffffffffff81111561147a5761147961126f565b5b61148689828a016113a7565b945050606087013567ffffffffffffffff8111156114a7576114a661126f565b5b6114b389828a016113a7565b935050608087013567ffffffffffffffff8111156114d4576114d361126f565b5b6114e089828a016113a7565b92505060a06114f189828a016113ec565b9150509295509295509295565b6000602082840312156115145761151361126a565b5b60006115228482850161128b565b91505092915050565b6115348161103b565b82525050565b600082825260208201905092915050565b600061155682611054565b611560818561153a565b9350611570818560208601611070565b611579816110a3565b840191505092915050565b61158d816110ed565b82525050565b600060c0820190506115a8600083018961152b565b81810360208301526115ba818861154b565b905081810360408301526115ce818761154b565b905081810360608301526115e2818661154b565b905081810360808301526115f6818561154b565b905061160560a0830184611584565b979650505050505050565b600080600080600060a0868803121561162c5761162b61126a565b5b600086013567ffffffffffffffff81111561164a5761164961126f565b5b611656888289016113a7565b955050602086013567ffffffffffffffff8111156116775761167661126f565b5b611683888289016113a7565b945050604086013567ffffffffffffffff8111156116a4576116a361126f565b5b6116b0888289016113a7565b935050606086013567ffffffffffffffff8111156116d1576116d061126f565b5b6116dd888289016113a7565b92505060806116ee888289016113ec565b9150509295509295909350565b7f4e487b7100000000000000000000000000000000000000000000000000000000600052602260045260246000fd5b6000600282049050600182168061174257607f821691505b602082108103611755576117546116fb565b5b50919050565b7f4e487b7100000000000000000000000000000000000000000000000000000000600052603260045260246000fd5b7f4e487b7100000000000000000000000000000000000000000000000000000000600052601160045260246000fd5b60006117c48261103b565b91507fffffffffffffffffffffffffffffffffffffffffffffffffffffffffffffffff82036117f6576117f561178a565b5b600182019050919050565b7f4f6e6c7920746865206f776e65722063616e207570646174652061207061737360008201527f776f726400000000000000000000000000000000000000000000000000000000602082015250565b600061185d60248361153a565b915061186882611801565b604082019050919050565b6000602082019050818103600083015261188c81611850565b9050919050565b7f50617373776f726420646f6573206e6f74206578697374000000000000000000600082015250565b60006118c960178361153a565b91506118d482611893565b602082019050919050565b600060208201905081810360008301526118f8816118bc565b9050919050565b7f4f6e6c7920746865206f776e65722063616e2061646420612070617373776f7260008201527f6400000000000000000000000000000000000000000000000000000000000000602082015250565b600061195b60218361153a565b9150611966826118ff565b604082019050919050565b6000602082019050818103600083015261198a8161194e565b9050919050565b7f4f6e6c7920746865206f776e65722063616e2064656c6574652061207061737360008201527f776f726400000000000000000000000000000000000000000000000000000000602082015250565b60006119ed60248361153a565b91506119f882611991565b604082019050919050565b60006020820190508181036000830152611a1c816119e0565b9050919050565b6000611a2e8261103b565b915060008203611a4157611a4061178a565b5b60018203905091905056fea264697066735822122003444c8cdcad82e3a636c06daab66b4122dc7710ef1347acbc3097f783d20d0c64736f6c634300080d0033",
  "immutableReferences": {},
  "source": "pragma solidity ^0.8.13;\n\nstruct Password {\n    uint id;\n    string nickname;\n    string password;\n    string username;\n    string domain;\n    uint16 tag;\n}\n\ncontract Registry {\n\n    // the current next id for a Password\n    uint currId = 0;\n\n    // the number of passwords in the registry\n    uint numPasswords = 0;\n\n    // the address of the Proxy contract\n    address private proxy;\n\n    // the address of the user who created this registry\n    address private owner;\n\n    // maps the Password id to the Password struct\n    mapping (uint => Password) public passwords;\n\n    constructor(address _owner) {\n        owner = _owner;\n        proxy = msg.sender;\n    }\n\n    function getPasswords() public view returns (Password[] memory) {\n        Password[] memory _passwords = new Password[](numPasswords);\n        // iterate through all the passwords up to currId\n        for (uint i = 0; i < currId; i++) {\n            if (!isPasswordEmpty(i)) {\n                _passwords[i] = passwords[i];\n            }\n        }\n        return _passwords;\n    }\n\n    function addPassword(string memory _nickname, string memory _password, string memory _username, string memory _domain, uint16 _tag) public {\n        // only the owner of the registry can add a password\n        require(msg.sender == owner, \"Only the owner can add a password\");\n        // create a new Password struct\n        Password memory p = Password(currId, _nickname, _password, _username, _domain, _tag);\n        // add the password to the registry\n        passwords[currId] = p;\n        // increment the current id\n        currId++;\n        // increment the number of passwords\n        numPasswords++;\n    }\n\n    function updatePassword(uint id, string memory _nickname, string memory _password, string memory _username, string memory _domain, uint16 _tag) public {\n        // only the owner of the registry can update a password\n        require(msg.sender == owner, \"Only the owner can update a password\");\n        // make sure the password exists\n        require(!isPasswordEmpty(id), \"Password does not exist\");\n        // update the password\n        passwords[id].nickname = _nickname;\n        passwords[id].password = _password;\n        passwords[id].username = _username;\n        passwords[id].domain = _domain;\n        passwords[id].tag = _tag;\n    }\n\n    function deletePassword(uint id) public {\n        // only the owner of the registry can delete a password\n        require(msg.sender == owner, \"Only the owner can delete a password\");\n        // make sure the password exists\n        require(!isPasswordEmpty(id), \"Password does not exist\");\n        // delete the password\n        delete passwords[id];\n        // decrement the number of passwords\n        numPasswords--;\n    }\n\n    function isPasswordEmpty(uint id) private view returns (bool) {\n        Password memory p = passwords[id];\n        return p.id == 0 && \n            keccak256(bytes(p.nickname)) == keccak256(bytes(\"\")) &&\n            keccak256(bytes(p.password)) == keccak256(bytes(\"\")) && \n            keccak256(bytes(p.username)) == keccak256(bytes(\"\")) && \n            keccak256(bytes(p.domain)) == keccak256(bytes(\"\"))  && \n            p.tag == 0;\n    }\n\n}",
  "sourcePath": "/Users/bennibbelink/EtherPass/backend/contracts/Registry.sol",
  "compiler": {
    "name": "solc",
    "version": "0.8.13+commit.abaa5c0e.Emscripten.clang"
  },
  "schemaVersion": "3.4.13",
  "updatedAt": "2023-09-30T19:58:27.321Z",
  "networkType": "ethereum",
  "devdoc": {
    "kind": "dev",
    "methods": {},
    "version": 1
  },
  "userdoc": {
    "kind": "user",
    "methods": {},
    "version": 1
  }
}