{
  "contractName": "Registry",
  "abi": [
    {
      "inputs": [
        {
          "internalType": "address",
          "name": "_owner",
          "type": "address"
        }
      ],
      "stateMutability": "nonpayable",
      "type": "constructor"
    },
    {
      "inputs": [
        {
          "internalType": "uint256",
          "name": "",
          "type": "uint256"
        }
      ],
      "name": "passwords",
      "outputs": [
        {
          "internalType": "uint256",
          "name": "id",
          "type": "uint256"
        },
        {
          "internalType": "string",
          "name": "nickname",
          "type": "string"
        },
        {
          "internalType": "string",
          "name": "password",
          "type": "string"
        },
        {
          "internalType": "string",
          "name": "username",
          "type": "string"
        },
        {
          "internalType": "string",
          "name": "domain",
          "type": "string"
        },
        {
          "internalType": "uint16",
          "name": "tag",
          "type": "uint16"
        }
      ],
      "stateMutability": "view",
      "type": "function"
    },
    {
      "inputs": [],
      "name": "getPasswords",
      "outputs": [
        {
          "components": [
            {
              "internalType": "uint256",
              "name": "id",
              "type": "uint256"
            },
            {
              "internalType": "string",
              "name": "nickname",
              "type": "string"
            },
            {
              "internalType": "string",
              "name": "password",
              "type": "string"
            },
            {
              "internalType": "string",
              "name": "username",
              "type": "string"
            },
            {
              "internalType": "string",
              "name": "domain",
              "type": "string"
            },
            {
              "internalType": "uint16",
              "name": "tag",
              "type": "uint16"
            }
          ],
          "internalType": "struct Password[]",
          "name": "",
          "type": "tuple[]"
        }
      ],
      "stateMutability": "view",
      "type": "function"
    },
    {
      "inputs": [
        {
          "components": [
            {
              "internalType": "uint256",
              "name": "id",
              "type": "uint256"
            },
            {
              "internalType": "string",
              "name": "nickname",
              "type": "string"
            },
            {
              "internalType": "string",
              "name": "password",
              "type": "string"
            },
            {
              "internalType": "string",
              "name": "username",
              "type": "string"
            },
            {
              "internalType": "string",
              "name": "domain",
              "type": "string"
            },
            {
              "internalType": "uint16",
              "name": "tag",
              "type": "uint16"
            }
          ],
          "internalType": "struct Password[]",
          "name": "adds",
          "type": "tuple[]"
        },
        {
          "internalType": "uint256[]",
          "name": "deletes",
          "type": "uint256[]"
        },
        {
          "components": [
            {
              "internalType": "uint256",
              "name": "id",
              "type": "uint256"
            },
            {
              "internalType": "string",
              "name": "nickname",
              "type": "string"
            },
            {
              "internalType": "string",
              "name": "password",
              "type": "string"
            },
            {
              "internalType": "string",
              "name": "username",
              "type": "string"
            },
            {
              "internalType": "string",
              "name": "domain",
              "type": "string"
            },
            {
              "internalType": "uint16",
              "name": "tag",
              "type": "uint16"
            }
          ],
          "internalType": "struct Password[]",
          "name": "updates",
          "type": "tuple[]"
        }
      ],
      "name": "batchUpdate",
      "outputs": [],
      "stateMutability": "nonpayable",
      "type": "function"
    }
  ],
  "bytecode": "0x6080604052600160005560006001553480156200001b57600080fd5b506040516200211538038062002115833981810160405281019062000041919062000134565b80600360006101000a81548173ffffffffffffffffffffffffffffffffffffffff021916908373ffffffffffffffffffffffffffffffffffffffff16021790555033600260006101000a81548173ffffffffffffffffffffffffffffffffffffffff021916908373ffffffffffffffffffffffffffffffffffffffff1602179055505062000166565b600080fd5b600073ffffffffffffffffffffffffffffffffffffffff82169050919050565b6000620000fc82620000cf565b9050919050565b6200010e81620000ef565b81146200011a57600080fd5b50565b6000815190506200012e8162000103565b92915050565b6000602082840312156200014d576200014c620000ca565b5b60006200015d848285016200011d565b91505092915050565b611f9f80620001766000396000f3fe608060405234801561001057600080fd5b50600436106100415760003560e01c80633b51675d1461004657806349f8880e14610062578063a04e318c14610080575b600080fd5b610060600480360381019061005b919061175f565b6100b5565b005b61006a610332565b6040516100779190611a0c565b60405180910390f35b61009a60048036038101906100959190611a2e565b610706565b6040516100ac96959493929190611ac3565b60405180910390f35b600360009054906101000a900473ffffffffffffffffffffffffffffffffffffffff1673ffffffffffffffffffffffffffffffffffffffff163373ffffffffffffffffffffffffffffffffffffffff1614610145576040517f08c379a000000000000000000000000000000000000000000000000000000000815260040161013c90611b8c565b60405180910390fd5b60005b8351811015610207576101f484828151811061016757610166611bac565b5b60200260200101516020015185838151811061018657610185611bac565b5b6020026020010151604001518684815181106101a5576101a4611bac565b5b6020026020010151606001518785815181106101c4576101c3611bac565b5b6020026020010151608001518886815181106101e3576101e2611bac565b5b602002602001015160a00151610970565b80806101ff90611c0a565b915050610148565b5060005b825181101561024a5761023783828151811061022a57610229611bac565b5b6020026020010151610b27565b808061024290611c0a565b91505061020b565b5060005b815181101561032c5761031982828151811061026d5761026c611bac565b5b60200260200101516000015183838151811061028c5761028b611bac565b5b6020026020010151602001518484815181106102ab576102aa611bac565b5b6020026020010151604001518585815181106102ca576102c9611bac565b5b6020026020010151606001518686815181106102e9576102e8611bac565b5b60200260200101516080015187878151811061030857610307611bac565b5b602002602001015160a00151610c8e565b808061032490611c0a565b91505061024e565b50505050565b6060600360009054906101000a900473ffffffffffffffffffffffffffffffffffffffff1673ffffffffffffffffffffffffffffffffffffffff163373ffffffffffffffffffffffffffffffffffffffff16146103c4576040517f08c379a00000000000000000000000000000000000000000000000000000000081526004016103bb90611c9e565b60405180910390fd5b600060015467ffffffffffffffff8111156103e2576103e16112fc565b5b60405190808252806020026020018201604052801561041b57816020015b6104086111b5565b8152602001906001900390816104005790505b5090506000600190505b6000548110156106fe5761043881610e4c565b6106eb57600460008281526020019081526020016000206040518060c00160405290816000820154815260200160018201805461047490611ced565b80601f01602080910402602001604051908101604052809291908181526020018280546104a090611ced565b80156104ed5780601f106104c2576101008083540402835291602001916104ed565b820191906000526020600020905b8154815290600101906020018083116104d057829003601f168201915b5050505050815260200160028201805461050690611ced565b80601f016020809104026020016040519081016040528092919081815260200182805461053290611ced565b801561057f5780601f106105545761010080835404028352916020019161057f565b820191906000526020600020905b81548152906001019060200180831161056257829003601f168201915b5050505050815260200160038201805461059890611ced565b80601f01602080910402602001604051908101604052809291908181526020018280546105c490611ced565b80156106115780601f106105e657610100808354040283529160200191610611565b820191906000526020600020905b8154815290600101906020018083116105f457829003601f168201915b5050505050815260200160048201805461062a90611ced565b80601f016020809104026020016040519081016040528092919081815260200182805461065690611ced565b80156106a35780601f10610678576101008083540402835291602001916106a3565b820191906000526020600020905b81548152906001019060200180831161068657829003601f168201915b505050505081526020016005820160009054906101000a900461ffff1661ffff1661ffff16815250508282815181106106df576106de611bac565b5b60200260200101819052505b80806106f690611c0a565b915050610425565b508091505090565b600460205280600052604060002060009150905080600001549080600101805461072f90611ced565b80601f016020809104026020016040519081016040528092919081815260200182805461075b90611ced565b80156107a85780601f1061077d576101008083540402835291602001916107a8565b820191906000526020600020905b81548152906001019060200180831161078b57829003601f168201915b5050505050908060020180546107bd90611ced565b80601f01602080910402602001604051908101604052809291908181526020018280546107e990611ced565b80156108365780601f1061080b57610100808354040283529160200191610836565b820191906000526020600020905b81548152906001019060200180831161081957829003601f168201915b50505050509080600301805461084b90611ced565b80601f016020809104026020016040519081016040528092919081815260200182805461087790611ced565b80156108c45780601f10610899576101008083540402835291602001916108c4565b820191906000526020600020905b8154815290600101906020018083116108a757829003601f168201915b5050505050908060040180546108d990611ced565b80601f016020809104026020016040519081016040528092919081815260200182805461090590611ced565b80156109525780601f1061092757610100808354040283529160200191610952565b820191906000526020600020905b81548152906001019060200180831161093557829003601f168201915b5050505050908060050160009054906101000a900461ffff16905086565b600360009054906101000a900473ffffffffffffffffffffffffffffffffffffffff1673ffffffffffffffffffffffffffffffffffffffff163373ffffffffffffffffffffffffffffffffffffffff1614610a00576040517f08c379a00000000000000000000000000000000000000000000000000000000081526004016109f790611d90565b60405180910390fd5b60006040518060c0016040528060005481526020018781526020018681526020018581526020018481526020018361ffff168152509050806004600080548152602001908152602001600020600082015181600001556020820151816001019080519060200190610a729291906111ef565b506040820151816002019080519060200190610a8f9291906111ef565b506060820151816003019080519060200190610aac9291906111ef565b506080820151816004019080519060200190610ac99291906111ef565b5060a08201518160050160006101000a81548161ffff021916908361ffff160217905550905050600080815480929190610b0290611c0a565b919050555060016000815480929190610b1a90611c0a565b9190505550505050505050565b600360009054906101000a900473ffffffffffffffffffffffffffffffffffffffff1673ffffffffffffffffffffffffffffffffffffffff163373ffffffffffffffffffffffffffffffffffffffff1614610bb7576040517f08c379a0000000000000000000000000000000000000000000000000000000008152600401610bae90611e22565b60405180910390fd5b610bc081610e4c565b15610c00576040517f08c379a0000000000000000000000000000000000000000000000000000000008152600401610bf790611e8e565b60405180910390fd5b60046000828152602001908152602001600020600080820160009055600182016000610c2c9190611275565b600282016000610c3c9190611275565b600382016000610c4c9190611275565b600482016000610c5c9190611275565b6005820160006101000a81549061ffff0219169055505060016000815480929190610c8690611eae565b919050555050565b600360009054906101000a900473ffffffffffffffffffffffffffffffffffffffff1673ffffffffffffffffffffffffffffffffffffffff163373ffffffffffffffffffffffffffffffffffffffff1614610d1e576040517f08c379a0000000000000000000000000000000000000000000000000000000008152600401610d1590611f49565b60405180910390fd5b610d2786610e4c565b15610d67576040517f08c379a0000000000000000000000000000000000000000000000000000000008152600401610d5e90611e8e565b60405180910390fd5b84600460008881526020019081526020016000206001019080519060200190610d919291906111ef565b5083600460008881526020019081526020016000206002019080519060200190610dbc9291906111ef565b5082600460008881526020019081526020016000206003019080519060200190610de79291906111ef565b5081600460008881526020019081526020016000206004019080519060200190610e129291906111ef565b50806004600088815260200190815260200160002060050160006101000a81548161ffff021916908361ffff160217905550505050505050565b600080600460008481526020019081526020016000206040518060c001604052908160008201548152602001600182018054610e8790611ced565b80601f0160208091040260200160405190810160405280929190818152602001828054610eb390611ced565b8015610f005780601f10610ed557610100808354040283529160200191610f00565b820191906000526020600020905b815481529060010190602001808311610ee357829003601f168201915b50505050508152602001600282018054610f1990611ced565b80601f0160208091040260200160405190810160405280929190818152602001828054610f4590611ced565b8015610f925780601f10610f6757610100808354040283529160200191610f92565b820191906000526020600020905b815481529060010190602001808311610f7557829003601f168201915b50505050508152602001600382018054610fab90611ced565b80601f0160208091040260200160405190810160405280929190818152602001828054610fd790611ced565b80156110245780601f10610ff957610100808354040283529160200191611024565b820191906000526020600020905b81548152906001019060200180831161100757829003601f168201915b5050505050815260200160048201805461103d90611ced565b80601f016020809104026020016040519081016040528092919081815260200182805461106990611ced565b80156110b65780601f1061108b576101008083540402835291602001916110b6565b820191906000526020600020905b81548152906001019060200180831161109957829003601f168201915b505050505081526020016005820160009054906101000a900461ffff1661ffff1661ffff168152505090506000816000015114801561111557506040518060200160405280600081525080519060200120816020015180519060200120145b801561114157506040518060200160405280600081525080519060200120816040015180519060200120145b801561116d57506040518060200160405280600081525080519060200120816060015180519060200120145b801561119957506040518060200160405280600081525080519060200120816080015180519060200120145b80156111ad575060008160a0015161ffff16145b915050919050565b6040518060c001604052806000815260200160608152602001606081526020016060815260200160608152602001600061ffff1681525090565b8280546111fb90611ced565b90600052602060002090601f01602090048101928261121d5760008555611264565b82601f1061123657805160ff1916838001178555611264565b82800160010185558215611264579182015b82811115611263578251825591602001919060010190611248565b5b50905061127191906112b5565b5090565b50805461128190611ced565b6000825580601f1061129357506112b2565b601f0160209004906000526020600020908101906112b191906112b5565b5b50565b5b808211156112ce5760008160009055506001016112b6565b5090565b6000604051905090565b600080fd5b600080fd5b600080fd5b6000601f19601f8301169050919050565b7f4e487b7100000000000000000000000000000000000000000000000000000000600052604160045260246000fd5b611334826112eb565b810181811067ffffffffffffffff82111715611353576113526112fc565b5b80604052505050565b60006113666112d2565b9050611372828261132b565b919050565b600067ffffffffffffffff821115611392576113916112fc565b5b602082029050602081019050919050565b600080fd5b600080fd5b600080fd5b6000819050919050565b6113c5816113b2565b81146113d057600080fd5b50565b6000813590506113e2816113bc565b92915050565b600080fd5b600067ffffffffffffffff821115611408576114076112fc565b5b611411826112eb565b9050602081019050919050565b82818337600083830152505050565b600061144061143b846113ed565b61135c565b90508281526020810184848401111561145c5761145b6113e8565b5b61146784828561141e565b509392505050565b600082601f830112611484576114836112e6565b5b813561149484826020860161142d565b91505092915050565b600061ffff82169050919050565b6114b48161149d565b81146114bf57600080fd5b50565b6000813590506114d1816114ab565b92915050565b600060c082840312156114ed576114ec6113a8565b5b6114f760c061135c565b90506000611507848285016113d3565b600083015250602082013567ffffffffffffffff81111561152b5761152a6113ad565b5b6115378482850161146f565b602083015250604082013567ffffffffffffffff81111561155b5761155a6113ad565b5b6115678482850161146f565b604083015250606082013567ffffffffffffffff81111561158b5761158a6113ad565b5b6115978482850161146f565b606083015250608082013567ffffffffffffffff8111156115bb576115ba6113ad565b5b6115c78482850161146f565b60808301525060a06115db848285016114c2565b60a08301525092915050565b60006115fa6115f584611377565b61135c565b9050808382526020820190506020840283018581111561161d5761161c6113a3565b5b835b8181101561166457803567ffffffffffffffff811115611642576116416112e6565b5b80860161164f89826114d7565b8552602085019450505060208101905061161f565b5050509392505050565b600082601f830112611683576116826112e6565b5b81356116938482602086016115e7565b91505092915050565b600067ffffffffffffffff8211156116b7576116b66112fc565b5b602082029050602081019050919050565b60006116db6116d68461169c565b61135c565b905080838252602082019050602084028301858111156116fe576116fd6113a3565b5b835b81811015611727578061171388826113d3565b845260208401935050602081019050611700565b5050509392505050565b600082601f830112611746576117456112e6565b5b81356117568482602086016116c8565b91505092915050565b600080600060608486031215611778576117776112dc565b5b600084013567ffffffffffffffff811115611796576117956112e1565b5b6117a28682870161166e565b935050602084013567ffffffffffffffff8111156117c3576117c26112e1565b5b6117cf86828701611731565b925050604084013567ffffffffffffffff8111156117f0576117ef6112e1565b5b6117fc8682870161166e565b9150509250925092565b600081519050919050565b600082825260208201905092915050565b6000819050602082019050919050565b61183b816113b2565b82525050565b600081519050919050565b600082825260208201905092915050565b60005b8381101561187b578082015181840152602081019050611860565b8381111561188a576000848401525b50505050565b600061189b82611841565b6118a5818561184c565b93506118b581856020860161185d565b6118be816112eb565b840191505092915050565b6118d28161149d565b82525050565b600060c0830160008301516118f06000860182611832565b50602083015184820360208601526119088282611890565b915050604083015184820360408601526119228282611890565b9150506060830151848203606086015261193c8282611890565b915050608083015184820360808601526119568282611890565b91505060a083015161196b60a08601826118c9565b508091505092915050565b600061198283836118d8565b905092915050565b6000602082019050919050565b60006119a282611806565b6119ac8185611811565b9350836020820285016119be85611822565b8060005b858110156119fa57848403895281516119db8582611976565b94506119e68361198a565b925060208a019950506001810190506119c2565b50829750879550505050505092915050565b60006020820190508181036000830152611a268184611997565b905092915050565b600060208284031215611a4457611a436112dc565b5b6000611a52848285016113d3565b91505092915050565b611a64816113b2565b82525050565b600082825260208201905092915050565b6000611a8682611841565b611a908185611a6a565b9350611aa081856020860161185d565b611aa9816112eb565b840191505092915050565b611abd8161149d565b82525050565b600060c082019050611ad86000830189611a5b565b8181036020830152611aea8188611a7b565b90508181036040830152611afe8187611a7b565b90508181036060830152611b128186611a7b565b90508181036080830152611b268185611a7b565b9050611b3560a0830184611ab4565b979650505050505050565b7f4f6e6c7920746865206f776e65722063616e2062617463682075706461746500600082015250565b6000611b76601f83611a6a565b9150611b8182611b40565b602082019050919050565b60006020820190508181036000830152611ba581611b69565b9050919050565b7f4e487b7100000000000000000000000000000000000000000000000000000000600052603260045260246000fd5b7f4e487b7100000000000000000000000000000000000000000000000000000000600052601160045260246000fd5b6000611c15826113b2565b91507fffffffffffffffffffffffffffffffffffffffffffffffffffffffffffffffff8203611c4757611c46611bdb565b5b600182019050919050565b7f4f6e6c7920746865206f776e65722063616e206765742070617373776f726473600082015250565b6000611c88602083611a6a565b9150611c9382611c52565b602082019050919050565b60006020820190508181036000830152611cb781611c7b565b9050919050565b7f4e487b7100000000000000000000000000000000000000000000000000000000600052602260045260246000fd5b60006002820490506001821680611d0557607f821691505b602082108103611d1857611d17611cbe565b5b50919050565b7f4f6e6c7920746865206f776e65722063616e2061646420612070617373776f7260008201527f6400000000000000000000000000000000000000000000000000000000000000602082015250565b6000611d7a602183611a6a565b9150611d8582611d1e565b604082019050919050565b60006020820190508181036000830152611da981611d6d565b9050919050565b7f4f6e6c7920746865206f776e65722063616e2064656c6574652061207061737360008201527f776f726400000000000000000000000000000000000000000000000000000000602082015250565b6000611e0c602483611a6a565b9150611e1782611db0565b604082019050919050565b60006020820190508181036000830152611e3b81611dff565b9050919050565b7f50617373776f726420646f6573206e6f74206578697374000000000000000000600082015250565b6000611e78601783611a6a565b9150611e8382611e42565b602082019050919050565b60006020820190508181036000830152611ea781611e6b565b9050919050565b6000611eb9826113b2565b915060008203611ecc57611ecb611bdb565b5b600182039050919050565b7f4f6e6c7920746865206f776e65722063616e207570646174652061207061737360008201527f776f726400000000000000000000000000000000000000000000000000000000602082015250565b6000611f33602483611a6a565b9150611f3e82611ed7565b604082019050919050565b60006020820190508181036000830152611f6281611f26565b905091905056fea264697066735822122024975bd65b841d92f6e84371962b9b3b32a4224f3b4b75f7173221505636cc1364736f6c634300080d0033",
  "immutableReferences": {},
  "source": "pragma solidity ^0.8.13;\n\nstruct Password {\n    uint id;\n    string nickname;\n    string password;\n    string username;\n    string domain;\n    uint16 tag;\n}\n\ncontract Registry {\n\n    // the current next id for a Password\n    uint currId = 1;\n\n    // the number of passwords in the registry\n    uint numPasswords = 0;\n\n    // the address of the Proxy contract\n    address private proxy;\n\n    // the address of the user who created this registry\n    address private owner;\n\n    // maps the Password id to the Password struct\n    mapping (uint => Password) public passwords;\n\n    constructor(address _owner) {\n        owner = _owner;\n        proxy = msg.sender;\n    }\n\n    function getPasswords() public view returns (Password[] memory) {\n        require(msg.sender == owner, \"Only the owner can get passwords\");\n        Password[] memory _passwords = new Password[](numPasswords);\n        // iterate through all the passwords up to currId\n        for (uint i = 1; i < currId; i++) {\n            if (!isPasswordEmpty(i)) {\n                _passwords[i] = passwords[i];\n            }\n        }\n        return _passwords;\n    }\n\n    function batchUpdate(Password[] memory adds, uint[] memory deletes, Password[] memory updates) public {\n        require(msg.sender == owner, \"Only the owner can batch update\");\n        for (uint i = 0; i < adds.length; i++) {\n            addPassword(adds[i].nickname, adds[i].password, adds[i].username, adds[i].domain, adds[i].tag);\n        }\n        for (uint i = 0; i < deletes.length; i++) {\n            deletePassword(deletes[i]);\n        }\n        for (uint i = 0; i < updates.length; i++) {\n            updatePassword(updates[i].id, updates[i].nickname, updates[i].password, updates[i].username, updates[i].domain, updates[i].tag);\n        }\n    }\n\n    function addPassword(string memory _nickname, string memory _password, string memory _username, string memory _domain, uint16 _tag) private {\n        // only the owner of the registry can add a password\n        require(msg.sender == owner, \"Only the owner can add a password\");\n        // create a new Password struct\n        Password memory p = Password(currId, _nickname, _password, _username, _domain, _tag);\n        // add the password to the registry\n        passwords[currId] = p;\n        // increment the current id\n        currId++;\n        // increment the number of passwords\n        numPasswords++;\n    }\n\n    function updatePassword(uint id, string memory _nickname, string memory _password, string memory _username, string memory _domain, uint16 _tag) private {\n        // only the owner of the registry can update a password\n        require(msg.sender == owner, \"Only the owner can update a password\");\n        // make sure the password exists\n        require(!isPasswordEmpty(id), \"Password does not exist\");\n        // update the password\n        passwords[id].nickname = _nickname;\n        passwords[id].password = _password;\n        passwords[id].username = _username;\n        passwords[id].domain = _domain;\n        passwords[id].tag = _tag;\n    }\n\n    function deletePassword(uint id) private {\n        // only the owner of the registry can delete a password\n        require(msg.sender == owner, \"Only the owner can delete a password\");\n        // make sure the password exists\n        require(!isPasswordEmpty(id), \"Password does not exist\");\n        // delete the password\n        delete passwords[id];\n        // decrement the number of passwords\n        numPasswords--;\n    }\n\n    function isPasswordEmpty(uint id) private view returns (bool) {\n        Password memory p = passwords[id];\n        return p.id == 0 && \n            keccak256(bytes(p.nickname)) == keccak256(bytes(\"\")) &&\n            keccak256(bytes(p.password)) == keccak256(bytes(\"\")) && \n            keccak256(bytes(p.username)) == keccak256(bytes(\"\")) && \n            keccak256(bytes(p.domain)) == keccak256(bytes(\"\"))  && \n            p.tag == 0;\n    }\n\n}",
  "sourcePath": "/Users/bennibbelink/FunctionalState/backend/contracts/Registry.sol",
  "compiler": {
    "name": "solc",
    "version": "0.8.13+commit.abaa5c0e.Emscripten.clang"
  },
  "schemaVersion": "3.4.13",
  "updatedAt": "2023-10-01T01:28:38.360Z",
  "networkType": "ethereum",
  "devdoc": {
    "kind": "dev",
    "methods": {},
    "version": 1
  },
  "userdoc": {
    "kind": "user",
    "methods": {},
    "version": 1
  }
}